{
  "contractName": "Cache",
  "abi": [
    {
      "constant": true,
      "inputs": [],
      "name": "name",
      "outputs": [
        {
          "name": "",
          "type": "string"
        }
      ],
      "payable": false,
      "stateMutability": "view",
      "type": "function"
    },
    {
      "constant": true,
      "inputs": [
        {
          "name": "key",
          "type": "bytes32"
        }
      ],
      "name": "getAddress",
      "outputs": [
        {
          "name": "",
          "type": "address"
        }
      ],
      "payable": false,
      "stateMutability": "view",
      "type": "function"
    },
    {
      "constant": false,
      "inputs": [
        {
          "name": "key",
          "type": "bytes32"
        },
        {
          "name": "value",
          "type": "bytes32"
        }
      ],
      "name": "setBytes32",
      "outputs": [],
      "payable": false,
      "stateMutability": "nonpayable",
      "type": "function"
    },
    {
      "constant": true,
      "inputs": [
        {
          "name": "key",
          "type": "bytes32"
        }
      ],
      "name": "getAddressArray",
      "outputs": [
        {
          "name": "",
          "type": "address[]"
        }
      ],
      "payable": false,
      "stateMutability": "view",
      "type": "function"
    },
    {
      "constant": true,
      "inputs": [],
      "name": "inCache",
      "outputs": [
        {
          "name": "",
          "type": "bool"
        }
      ],
      "payable": false,
      "stateMutability": "view",
      "type": "function"
    },
    {
      "constant": false,
      "inputs": [
        {
          "name": "key",
          "type": "bytes32"
        },
        {
          "name": "value",
          "type": "string"
        }
      ],
      "name": "setString",
      "outputs": [],
      "payable": false,
      "stateMutability": "nonpayable",
      "type": "function"
    },
    {
      "constant": true,
      "inputs": [
        {
          "name": "key",
          "type": "bytes32"
        }
      ],
      "name": "getBool",
      "outputs": [
        {
          "name": "",
          "type": "bool"
        }
      ],
      "payable": false,
      "stateMutability": "view",
      "type": "function"
    },
    {
      "constant": false,
      "inputs": [
        {
          "name": "key",
          "type": "bytes32"
        },
        {
          "name": "value",
          "type": "address"
        }
      ],
      "name": "updateAddressArray",
      "outputs": [],
      "payable": false,
      "stateMutability": "nonpayable",
      "type": "function"
    },
    {
      "constant": true,
      "inputs": [
        {
          "name": "key",
          "type": "bytes32"
        }
      ],
      "name": "getString",
      "outputs": [
        {
          "name": "",
          "type": "string"
        }
      ],
      "payable": false,
      "stateMutability": "view",
      "type": "function"
    },
    {
      "constant": true,
      "inputs": [],
      "name": "coordinates",
      "outputs": [
        {
          "name": "",
          "type": "bytes32"
        }
      ],
      "payable": false,
      "stateMutability": "view",
      "type": "function"
    },
    {
      "constant": true,
      "inputs": [
        {
          "name": "key",
          "type": "bytes32"
        }
      ],
      "name": "getBytes32",
      "outputs": [
        {
          "name": "",
          "type": "bytes32"
        }
      ],
      "payable": false,
      "stateMutability": "view",
      "type": "function"
    },
    {
      "constant": false,
      "inputs": [
        {
          "name": "key",
          "type": "bytes32"
        },
        {
          "name": "value",
          "type": "bool"
        }
      ],
      "name": "setBool",
      "outputs": [],
      "payable": false,
      "stateMutability": "nonpayable",
      "type": "function"
    },
    {
      "constant": true,
      "inputs": [],
      "name": "itemOwner",
      "outputs": [
        {
          "name": "",
          "type": "address"
        }
      ],
      "payable": false,
      "stateMutability": "view",
      "type": "function"
    },
    {
      "constant": true,
      "inputs": [
        {
          "name": "key",
          "type": "bytes32"
        }
      ],
      "name": "getUint",
      "outputs": [
        {
          "name": "",
          "type": "uint256"
        }
      ],
      "payable": false,
      "stateMutability": "view",
      "type": "function"
    },
    {
      "constant": false,
      "inputs": [
        {
          "name": "key",
          "type": "bytes32"
        },
        {
          "name": "value",
          "type": "address"
        }
      ],
      "name": "setAddress",
      "outputs": [],
      "payable": false,
      "stateMutability": "nonpayable",
      "type": "function"
    },
    {
      "constant": false,
      "inputs": [
        {
          "name": "key",
          "type": "bytes32"
        },
        {
          "name": "value",
          "type": "uint256"
        }
      ],
      "name": "setUint",
      "outputs": [],
      "payable": false,
      "stateMutability": "nonpayable",
      "type": "function"
    },
    {
      "constant": false,
      "inputs": [
        {
          "name": "key",
          "type": "bytes32"
        },
        {
          "name": "value",
          "type": "address[]"
        }
      ],
      "name": "setAddressArray",
      "outputs": [],
      "payable": false,
      "stateMutability": "nonpayable",
      "type": "function"
    },
    {
      "constant": false,
      "inputs": [],
      "name": "putItemInCache",
      "outputs": [],
      "payable": false,
      "stateMutability": "nonpayable",
      "type": "function"
    },
    {
      "constant": false,
      "inputs": [],
      "name": "removeItemFromChache",
      "outputs": [],
      "payable": false,
      "stateMutability": "nonpayable",
      "type": "function"
    },
    {
      "constant": true,
      "inputs": [],
      "name": "showItemSpecs",
      "outputs": [
        {
          "name": "",
          "type": "address"
        },
        {
          "name": "",
          "type": "string"
        },
        {
          "name": "",
          "type": "bool"
        },
        {
          "name": "",
          "type": "bytes32"
        }
      ],
      "payable": false,
      "stateMutability": "view",
      "type": "function"
    },
    {
      "constant": false,
      "inputs": [
        {
          "name": "_newOwner",
          "type": "address"
        }
      ],
      "name": "changeItemOwnership",
      "outputs": [],
      "payable": false,
      "stateMutability": "nonpayable",
      "type": "function"
    },
    {
      "constant": false,
      "inputs": [
        {
          "name": "_name",
          "type": "string"
        }
      ],
      "name": "setName",
      "outputs": [],
      "payable": false,
      "stateMutability": "nonpayable",
      "type": "function"
    },
    {
      "constant": false,
      "inputs": [
        {
          "name": "_inCache",
          "type": "bool"
        }
      ],
      "name": "setinCache",
      "outputs": [],
      "payable": false,
      "stateMutability": "nonpayable",
      "type": "function"
    },
    {
      "constant": false,
      "inputs": [
        {
          "name": "_coordinates",
          "type": "bytes32"
        }
      ],
      "name": "setCoordinates",
      "outputs": [],
      "payable": false,
      "stateMutability": "nonpayable",
      "type": "function"
    },
    {
      "constant": true,
      "inputs": [],
      "name": "getOwnership",
      "outputs": [
        {
          "name": "",
          "type": "address"
        }
      ],
      "payable": false,
      "stateMutability": "view",
      "type": "function"
    },
    {
      "constant": true,
      "inputs": [],
      "name": "getName",
      "outputs": [
        {
          "name": "",
          "type": "string"
        }
      ],
      "payable": false,
      "stateMutability": "view",
      "type": "function"
    },
    {
      "constant": true,
      "inputs": [],
      "name": "getinCache",
      "outputs": [
        {
          "name": "",
          "type": "bool"
        }
      ],
      "payable": false,
      "stateMutability": "view",
      "type": "function"
    },
    {
      "constant": true,
      "inputs": [],
      "name": "getCoordinates",
      "outputs": [
        {
          "name": "",
          "type": "bytes32"
        }
      ],
      "payable": false,
      "stateMutability": "view",
      "type": "function"
    }
  ],
  "bytecode": "0x608060405234801561001057600080fd5b506117f9806100206000396000f3fe60806040526004361061016a576000357c0100000000000000000000000000000000000000000000000000000000900463ffffffff1680630360f1d51461016f57806303f4e5591461018657806306fdde03146101d757806317d7de7c1461026757806321f8a721146102f75780634e91db0814610372578063564ca420146103b75780635948f733146103f257806361ddffba146104825780636e899550146104b1578063750a4937146105835780637823f610146105ae578063795d7fa1146105dd5780637ae1cfca1461061a57806388a0072a1461066d578063986e791a146106c8578063a4b889b71461077c578063a6ed563e146107a7578063aacd7321146107f6578063abfdcced1461084d578063b0b35fc114610894578063bd02d0f5146108eb578063c47f00271461093a578063ca446dd914610a02578063d8ff893b14610a5d578063e2a4853a14610a74578063e8aeea1314610ab9578063ec672cf614610b8e575b600080fd5b34801561017b57600080fd5b50610184610c5d565b005b34801561019257600080fd5b506101d5600480360360208110156101a957600080fd5b81019080803573ffffffffffffffffffffffffffffffffffffffff169060200190929190505050610c8a565b005b3480156101e357600080fd5b506101ec610cb7565b6040518080602001828103825283818151815260200191508051906020019080838360005b8381101561022c578082015181840152602081019050610211565b50505050905090810190601f1680156102595780820380516001836020036101000a031916815260200191505b509250505060405180910390f35b34801561027357600080fd5b5061027c610d55565b6040518080602001828103825283818151815260200191508051906020019080838360005b838110156102bc5780820151818401526020810190506102a1565b50505050905090810190601f1680156102e95780820380516001836020036101000a031916815260200191505b509250505060405180910390f35b34801561030357600080fd5b506103306004803603602081101561031a57600080fd5b8101908080359060200190929190505050610d85565b604051808273ffffffffffffffffffffffffffffffffffffffff1673ffffffffffffffffffffffffffffffffffffffff16815260200191505060405180910390f35b34801561037e57600080fd5b506103b56004803603604081101561039557600080fd5b810190808035906020019092919080359060200190929190505050610dff565b005b3480156103c357600080fd5b506103f0600480360360208110156103da57600080fd5b8101908080359060200190929190505050610e58565b005b3480156103fe57600080fd5b5061042b6004803603602081101561041557600080fd5b8101908080359060200190929190505050610e85565b6040518080602001828103825283818151815260200191508051906020019060200280838360005b8381101561046e578082015181840152602081019050610453565b505050509050019250505060405180910390f35b34801561048e57600080fd5b50610497610f63565b604051808215151515815260200191505060405180910390f35b3480156104bd57600080fd5b50610581600480360360408110156104d457600080fd5b8101908080359060200190929190803590602001906401000000008111156104fb57600080fd5b82018360208201111561050d57600080fd5b8035906020019184600183028401116401000000008311171561052f57600080fd5b91908080601f016020809104026020016040519081016040528093929190818152602001838380828437600081840152601f19601f820116905080830192505050505050509192919290505050610f76565b005b34801561058f57600080fd5b50610598610fdf565b6040518082815260200191505060405180910390f35b3480156105ba57600080fd5b506105c361100f565b604051808215151515815260200191505060405180910390f35b3480156105e957600080fd5b506106186004803603602081101561060057600080fd5b8101908080351515906020019092919050505061103f565b005b34801561062657600080fd5b506106536004803603602081101561063d57600080fd5b810190808035906020019092919050505061106c565b604051808215151515815260200191505060405180910390f35b34801561067957600080fd5b506106c66004803603604081101561069057600080fd5b8101908080359060200190929190803573ffffffffffffffffffffffffffffffffffffffff1690602001909291905050506110d3565b005b3480156106d457600080fd5b50610701600480360360208110156106eb57600080fd5b810190808035906020019092919050505061118b565b6040518080602001828103825283818151815260200191508051906020019080838360005b83811015610741578082015181840152602081019050610726565b50505050905090810190601f16801561076e5780820380516001836020036101000a031916815260200191505b509250505060405180910390f35b34801561078857600080fd5b5061079161127d565b6040518082815260200191505060405180910390f35b3480156107b357600080fd5b506107e0600480360360208110156107ca57600080fd5b8101908080359060200190929190505050611283565b6040518082815260200191505060405180910390f35b34801561080257600080fd5b5061080b6112dd565b604051808273ffffffffffffffffffffffffffffffffffffffff1673ffffffffffffffffffffffffffffffffffffffff16815260200191505060405180910390f35b34801561085957600080fd5b506108926004803603604081101561087057600080fd5b810190808035906020019092919080351515906020019092919050505061130d565b005b3480156108a057600080fd5b506108a9611379565b604051808273ffffffffffffffffffffffffffffffffffffffff1673ffffffffffffffffffffffffffffffffffffffff16815260200191505060405180910390f35b3480156108f757600080fd5b506109246004803603602081101561090e57600080fd5b810190808035906020019092919050505061139f565b6040518082815260200191505060405180910390f35b34801561094657600080fd5b50610a006004803603602081101561095d57600080fd5b810190808035906020019064010000000081111561097a57600080fd5b82018360208201111561098c57600080fd5b803590602001918460018302840111640100000000831117156109ae57600080fd5b91908080601f016020809104026020016040519081016040528093929190818152602001838380828437600081840152601f19601f8201169050808301925050505050505091929192905050506113f8565b005b348015610a0e57600080fd5b50610a5b60048036036040811015610a2557600080fd5b8101908080359060200190929190803573ffffffffffffffffffffffffffffffffffffffff169060200190929190505050611425565b005b348015610a6957600080fd5b50610a726114b8565b005b348015610a8057600080fd5b50610ab760048036036040811015610a9757600080fd5b8101908080359060200190929190803590602001909291905050506114e5565b005b348015610ac557600080fd5b50610ace61153d565b604051808573ffffffffffffffffffffffffffffffffffffffff1673ffffffffffffffffffffffffffffffffffffffff1681526020018060200184151515158152602001838152602001828103825285818151815260200191508051906020019080838360005b83811015610b50578082015181840152602081019050610b35565b50505050905090810190601f168015610b7d5780820380516001836020036101000a031916815260200191505b509550505050505060405180910390f35b348015610b9a57600080fd5b50610c5b60048036036040811015610bb157600080fd5b810190808035906020019092919080359060200190640100000000811115610bd857600080fd5b820183602082011115610bea57600080fd5b80359060200191846020830284011164010000000083111715610c0c57600080fd5b919080806020026020016040519081016040528093929190818152602001838360200280828437600081840152601f19601f8201169050808301925050505050505091929192905050506115f2565b005b610c887f696e436163686500000000000000000000000000000000000000000000000000600161130d565b565b610cb47f6974656d4f776e6572000000000000000000000000000000000000000000000082611425565b50565b60068054600181600116156101000203166002900480601f016020809104026020016040519081016040528092919081815260200182805460018160011615610100020316600290048015610d4d5780601f10610d2257610100808354040283529160200191610d4d565b820191906000526020600020905b815481529060010190602001808311610d3057829003601f168201915b505050505081565b6060610d807f6e616d650000000000000000000000000000000000000000000000000000000061118b565b905090565b6000600160003373ffffffffffffffffffffffffffffffffffffffff1673ffffffffffffffffffffffffffffffffffffffff168152602001908152602001600020600083815260200190815260200160002060009054906101000a900473ffffffffffffffffffffffffffffffffffffffff169050919050565b80600460003373ffffffffffffffffffffffffffffffffffffffff1673ffffffffffffffffffffffffffffffffffffffff1681526020019081526020016000206000848152602001908152602001600020819055505050565b610e827f636f6f7264696e6174657300000000000000000000000000000000000000000082610dff565b50565b6060600260003373ffffffffffffffffffffffffffffffffffffffff1673ffffffffffffffffffffffffffffffffffffffff1681526020019081526020016000206000838152602001908152602001600020805480602002602001604051908101604052809291908181526020018280548015610f5757602002820191906000526020600020905b8160009054906101000a900473ffffffffffffffffffffffffffffffffffffffff1673ffffffffffffffffffffffffffffffffffffffff1681526020019060010190808311610f0d575b50505050509050919050565b600760149054906101000a900460ff1681565b80600560003373ffffffffffffffffffffffffffffffffffffffff1673ffffffffffffffffffffffffffffffffffffffff16815260200190815260200160002060008481526020019081526020016000209080519060200190610fda92919061165b565b505050565b600061100a7f636f6f7264696e61746573000000000000000000000000000000000000000000611283565b905090565b600061103a7f696e43616368650000000000000000000000000000000000000000000000000061106c565b905090565b6110697f696e4361636865000000000000000000000000000000000000000000000000008261130d565b50565b6000600360003373ffffffffffffffffffffffffffffffffffffffff1673ffffffffffffffffffffffffffffffffffffffff168152602001908152602001600020600083815260200190815260200160002060009054906101000a900460ff169050919050565b600260003373ffffffffffffffffffffffffffffffffffffffff1673ffffffffffffffffffffffffffffffffffffffff16815260200190815260200160002060008381526020019081526020016000208190806001815401808255809150509060018203906000526020600020016000909192909190916101000a81548173ffffffffffffffffffffffffffffffffffffffff021916908373ffffffffffffffffffffffffffffffffffffffff160217905550505050565b6060600560003373ffffffffffffffffffffffffffffffffffffffff1673ffffffffffffffffffffffffffffffffffffffff16815260200190815260200160002060008381526020019081526020016000208054600181600116156101000203166002900480601f0160208091040260200160405190810160405280929190818152602001828054600181600116156101000203166002900480156112715780601f1061124657610100808354040283529160200191611271565b820191906000526020600020905b81548152906001019060200180831161125457829003601f168201915b50505050509050919050565b60085481565b6000600460003373ffffffffffffffffffffffffffffffffffffffff1673ffffffffffffffffffffffffffffffffffffffff1681526020019081526020016000206000838152602001908152602001600020549050919050565b60006113087f6974656d4f776e65720000000000000000000000000000000000000000000000610d85565b905090565b80600360003373ffffffffffffffffffffffffffffffffffffffff1673ffffffffffffffffffffffffffffffffffffffff168152602001908152602001600020600084815260200190815260200160002060006101000a81548160ff0219169083151502179055505050565b600760009054906101000a900473ffffffffffffffffffffffffffffffffffffffff1681565b60008060003373ffffffffffffffffffffffffffffffffffffffff1673ffffffffffffffffffffffffffffffffffffffff1681526020019081526020016000206000838152602001908152602001600020549050919050565b6114227f6e616d650000000000000000000000000000000000000000000000000000000082610f76565b50565b80600160003373ffffffffffffffffffffffffffffffffffffffff1673ffffffffffffffffffffffffffffffffffffffff168152602001908152602001600020600084815260200190815260200160002060006101000a81548173ffffffffffffffffffffffffffffffffffffffff021916908373ffffffffffffffffffffffffffffffffffffffff1602179055505050565b6114e37f696e436163686500000000000000000000000000000000000000000000000000600061130d565b565b806000803373ffffffffffffffffffffffffffffffffffffffff1673ffffffffffffffffffffffffffffffffffffffff1681526020019081526020016000206000848152602001908152602001600020819055505050565b6000606060008061156d7f6974656d4f776e65720000000000000000000000000000000000000000000000610d85565b506115977f6e616d650000000000000000000000000000000000000000000000000000000061118b565b506115c17f696e43616368650000000000000000000000000000000000000000000000000061106c565b506115eb7f636f6f7264696e61746573000000000000000000000000000000000000000000611283565b5090919293565b80600260003373ffffffffffffffffffffffffffffffffffffffff1673ffffffffffffffffffffffffffffffffffffffff168152602001908152602001600020600084815260200190815260200160002090805190602001906116569291906116db565b505050565b828054600181600116156101000203166002900490600052602060002090601f016020900481019282601f1061169c57805160ff19168380011785556116ca565b828001600101855582156116ca579182015b828111156116c95782518255916020019190600101906116ae565b5b5090506116d79190611765565b5090565b828054828255906000526020600020908101928215611754579160200282015b828111156117535782518260006101000a81548173ffffffffffffffffffffffffffffffffffffffff021916908373ffffffffffffffffffffffffffffffffffffffff160217905550916020019190600101906116fb565b5b509050611761919061178a565b5090565b61178791905b8082111561178357600081600090555060010161176b565b5090565b90565b6117ca91905b808211156117c657600081816101000a81549073ffffffffffffffffffffffffffffffffffffffff021916905550600101611790565b5090565b9056fea165627a7a72305820def91305f14327b8993de6fba7feb65e2e0bc9fa8c2ccb851f44db2688a6e3060029",
  "source": "pragma solidity >0.4.99 <0.6.0;\n\nimport \"../contracts/Storage.sol\";\n\ncontract Cache is Storage {\n\n      //address public owner;\n      string public name;\n      address public itemOwner;\n      bool public inCache;\n      bytes32  public coordinates;\n      \n      function putItemInCache() public {\n            //inCache = true;\n            Storage.setBool(\"inCache\" , true);\n\n      }\n\n      function removeItemFromChache() public {\n            //inCache = false;\n            Storage.setBool(\"inCache\" , false);\n\n      }\n\n      function showItemSpecs() public view returns(address,string memory, bool, bytes32) {\n           //return(address(itemOwner), string(name), bool(inCache), bytes32 (coordinates));\n           Storage.getAddress(\"itemOwner\");\n           Storage.getString(\"name\");\n           Storage.getBool(\"inCache\");\n           Storage.getBytes32(\"coordinates\");\n      }\n\n      function changeItemOwnership(address _newOwner) public {\n            //itemOwner = _newOwner;\n            Storage.setAddress(\"itemOwner\" , _newOwner);\n      }\n      \n      function setName(string memory _name) public {\n            Storage.setString(\"name\" , _name);\n      }\n\n      function setinCache(bool  _inCache) public {\n            Storage.setBool(\"inCache\" , _inCache);\n      }\n\n      function setCoordinates(bytes32 _coordinates) public {\n            Storage.setBytes32(\"coordinates\" , _coordinates);\n      }\n\n      function getOwnership() public view returns(address) {\n            return Storage.getAddress(\"itemOwner\");\n      }\n\n      function getName() public view returns(string memory) {\n            return Storage.getString(\"name\");\n      }\n\n      function getinCache() public view returns(bool) {\n            return Storage.getBool(\"inCache\");\n      }\n\n      function getCoordinates() public view returns(bytes32) {\n            return Storage.getBytes32(\"coordinates\");\n      }\n\n}",
  "sourcePath": "/home/matt/myproject/geo/contracts/Cache.sol",
  "compiler": {
    "name": "solc",
    "version": "0.5.0+commit.1d4f565a.Emscripten.clang"
  },
  "schemaVersion": "3.0.5",
  "updatedAt": "2019-03-30T02:26:29.905Z",
  "devdoc": {
    "methods": {}
  },
  "userdoc": {
    "methods": {}
  }
}