{
  "contractName": "Chache",
  "abi": [
    {
      "constant": true,
      "inputs": [],
      "name": "name",
      "outputs": [
        {
          "name": "",
          "type": "string"
        }
      ],
      "payable": false,
      "stateMutability": "view",
      "type": "function"
    },
    {
      "constant": true,
      "inputs": [
        {
          "name": "key",
          "type": "bytes32"
        }
      ],
      "name": "getAddress",
      "outputs": [
        {
          "name": "",
          "type": "address"
        }
      ],
      "payable": false,
      "stateMutability": "view",
      "type": "function"
    },
    {
      "constant": false,
      "inputs": [
        {
          "name": "key",
          "type": "bytes32"
        },
        {
          "name": "value",
          "type": "bytes32"
        }
      ],
      "name": "setBytes32",
      "outputs": [],
      "payable": false,
      "stateMutability": "nonpayable",
      "type": "function"
    },
    {
      "constant": true,
      "inputs": [
        {
          "name": "key",
          "type": "bytes32"
        }
      ],
      "name": "getAddressArray",
      "outputs": [
        {
          "name": "",
          "type": "address[]"
        }
      ],
      "payable": false,
      "stateMutability": "view",
      "type": "function"
    },
    {
      "constant": true,
      "inputs": [],
      "name": "inCache",
      "outputs": [
        {
          "name": "",
          "type": "bool"
        }
      ],
      "payable": false,
      "stateMutability": "view",
      "type": "function"
    },
    {
      "constant": false,
      "inputs": [
        {
          "name": "key",
          "type": "bytes32"
        },
        {
          "name": "value",
          "type": "string"
        }
      ],
      "name": "setString",
      "outputs": [],
      "payable": false,
      "stateMutability": "nonpayable",
      "type": "function"
    },
    {
      "constant": true,
      "inputs": [
        {
          "name": "key",
          "type": "bytes32"
        }
      ],
      "name": "getBool",
      "outputs": [
        {
          "name": "",
          "type": "bool"
        }
      ],
      "payable": false,
      "stateMutability": "view",
      "type": "function"
    },
    {
      "constant": false,
      "inputs": [
        {
          "name": "key",
          "type": "bytes32"
        },
        {
          "name": "value",
          "type": "address"
        }
      ],
      "name": "updateAddressArray",
      "outputs": [],
      "payable": false,
      "stateMutability": "nonpayable",
      "type": "function"
    },
    {
      "constant": true,
      "inputs": [
        {
          "name": "key",
          "type": "bytes32"
        }
      ],
      "name": "getString",
      "outputs": [
        {
          "name": "",
          "type": "string"
        }
      ],
      "payable": false,
      "stateMutability": "view",
      "type": "function"
    },
    {
      "constant": true,
      "inputs": [],
      "name": "coordinates",
      "outputs": [
        {
          "name": "",
          "type": "bytes32"
        }
      ],
      "payable": false,
      "stateMutability": "view",
      "type": "function"
    },
    {
      "constant": true,
      "inputs": [
        {
          "name": "key",
          "type": "bytes32"
        }
      ],
      "name": "getBytes32",
      "outputs": [
        {
          "name": "",
          "type": "bytes32"
        }
      ],
      "payable": false,
      "stateMutability": "view",
      "type": "function"
    },
    {
      "constant": false,
      "inputs": [
        {
          "name": "key",
          "type": "bytes32"
        },
        {
          "name": "value",
          "type": "bool"
        }
      ],
      "name": "setBool",
      "outputs": [],
      "payable": false,
      "stateMutability": "nonpayable",
      "type": "function"
    },
    {
      "constant": true,
      "inputs": [],
      "name": "itemOwner",
      "outputs": [
        {
          "name": "",
          "type": "address"
        }
      ],
      "payable": false,
      "stateMutability": "view",
      "type": "function"
    },
    {
      "constant": true,
      "inputs": [
        {
          "name": "key",
          "type": "bytes32"
        }
      ],
      "name": "getUint",
      "outputs": [
        {
          "name": "",
          "type": "uint256"
        }
      ],
      "payable": false,
      "stateMutability": "view",
      "type": "function"
    },
    {
      "constant": false,
      "inputs": [
        {
          "name": "key",
          "type": "bytes32"
        },
        {
          "name": "value",
          "type": "address"
        }
      ],
      "name": "setAddress",
      "outputs": [],
      "payable": false,
      "stateMutability": "nonpayable",
      "type": "function"
    },
    {
      "constant": false,
      "inputs": [
        {
          "name": "key",
          "type": "bytes32"
        },
        {
          "name": "value",
          "type": "uint256"
        }
      ],
      "name": "setUint",
      "outputs": [],
      "payable": false,
      "stateMutability": "nonpayable",
      "type": "function"
    },
    {
      "constant": false,
      "inputs": [
        {
          "name": "key",
          "type": "bytes32"
        },
        {
          "name": "value",
          "type": "address[]"
        }
      ],
      "name": "setAddressArray",
      "outputs": [],
      "payable": false,
      "stateMutability": "nonpayable",
      "type": "function"
    },
    {
      "constant": false,
      "inputs": [],
      "name": "putItemInCache",
      "outputs": [],
      "payable": false,
      "stateMutability": "nonpayable",
      "type": "function"
    },
    {
      "constant": false,
      "inputs": [],
      "name": "removeItemFromChache",
      "outputs": [],
      "payable": false,
      "stateMutability": "nonpayable",
      "type": "function"
    },
    {
      "constant": true,
      "inputs": [],
      "name": "showItemSpecs",
      "outputs": [
        {
          "name": "",
          "type": "address"
        },
        {
          "name": "",
          "type": "string"
        },
        {
          "name": "",
          "type": "bool"
        },
        {
          "name": "",
          "type": "bytes32"
        }
      ],
      "payable": false,
      "stateMutability": "view",
      "type": "function"
    },
    {
      "constant": false,
      "inputs": [
        {
          "name": "_newOwner",
          "type": "address"
        }
      ],
      "name": "changeItemOwnership",
      "outputs": [],
      "payable": false,
      "stateMutability": "nonpayable",
      "type": "function"
    },
    {
      "constant": false,
      "inputs": [
        {
          "name": "_name",
          "type": "string"
        }
      ],
      "name": "setName",
      "outputs": [],
      "payable": false,
      "stateMutability": "nonpayable",
      "type": "function"
    },
    {
      "constant": false,
      "inputs": [
        {
          "name": "_inCache",
          "type": "bool"
        }
      ],
      "name": "setinCache",
      "outputs": [],
      "payable": false,
      "stateMutability": "nonpayable",
      "type": "function"
    },
    {
      "constant": false,
      "inputs": [
        {
          "name": "_coordinates",
          "type": "bytes32"
        }
      ],
      "name": "setCoordinates",
      "outputs": [],
      "payable": false,
      "stateMutability": "nonpayable",
      "type": "function"
    },
    {
      "constant": true,
      "inputs": [],
      "name": "getOwnership",
      "outputs": [
        {
          "name": "",
          "type": "address"
        }
      ],
      "payable": false,
      "stateMutability": "view",
      "type": "function"
    },
    {
      "constant": true,
      "inputs": [],
      "name": "getName",
      "outputs": [
        {
          "name": "",
          "type": "string"
        }
      ],
      "payable": false,
      "stateMutability": "view",
      "type": "function"
    },
    {
      "constant": true,
      "inputs": [],
      "name": "getinCache",
      "outputs": [
        {
          "name": "",
          "type": "bool"
        }
      ],
      "payable": false,
      "stateMutability": "view",
      "type": "function"
    },
    {
      "constant": true,
      "inputs": [],
      "name": "getCoordinates",
      "outputs": [
        {
          "name": "",
          "type": "bytes32"
        }
      ],
      "payable": false,
      "stateMutability": "view",
      "type": "function"
    }
  ],
  "bytecode": "0x608060405234801561001057600080fd5b506116e7806100206000396000f3fe608060405234801561001057600080fd5b50600436106101c45760003560e01c806388a0072a116100f9578063bd02d0f511610097578063d8ff893b11610071578063d8ff893b1461097f578063e2a4853a14610989578063e8aeea13146109c1578063ec672cf614610a89576101c4565b8063bd02d0f514610834578063c47f002714610876578063ca446dd914610931576101c4565b8063a6ed563e116100d3578063a6ed563e14610724578063aacd732114610766578063abfdcced146107b0578063b0b35fc1146107ea576101c4565b806388a0072a14610611578063986e791a1461065f578063a4b889b714610706576101c4565b80635948f73311610166578063750a493711610140578063750a49371461055b5780637823f61014610579578063795d7fa11461059b5780637ae1cfca146105cb576101c4565b80635948f733146103f157806361ddffba146104745780636e89955014610496576101c4565b806317d7de7c116101a257806317d7de7c1461029a57806321f8a7211461031d5780634e91db081461038b578063564ca420146103c3576101c4565b80630360f1d5146101c957806303f4e559146101d357806306fdde0314610217575b600080fd5b6101d1610b4b565b005b610215600480360360208110156101e957600080fd5b81019080803573ffffffffffffffffffffffffffffffffffffffff169060200190929190505050610b78565b005b61021f610ba5565b6040518080602001828103825283818151815260200191508051906020019080838360005b8381101561025f578082015181840152602081019050610244565b50505050905090810190601f16801561028c5780820380516001836020036101000a031916815260200191505b509250505060405180910390f35b6102a2610c43565b6040518080602001828103825283818151815260200191508051906020019080838360005b838110156102e25780820151818401526020810190506102c7565b50505050905090810190601f16801561030f5780820380516001836020036101000a031916815260200191505b509250505060405180910390f35b6103496004803603602081101561033357600080fd5b8101908080359060200190929190505050610c73565b604051808273ffffffffffffffffffffffffffffffffffffffff1673ffffffffffffffffffffffffffffffffffffffff16815260200191505060405180910390f35b6103c1600480360360408110156103a157600080fd5b810190808035906020019092919080359060200190929190505050610ced565b005b6103ef600480360360208110156103d957600080fd5b8101908080359060200190929190505050610d46565b005b61041d6004803603602081101561040757600080fd5b8101908080359060200190929190505050610d73565b6040518080602001828103825283818151815260200191508051906020019060200280838360005b83811015610460578082015181840152602081019050610445565b505050509050019250505060405180910390f35b61047c610e51565b604051808215151515815260200191505060405180910390f35b610559600480360360408110156104ac57600080fd5b8101908080359060200190929190803590602001906401000000008111156104d357600080fd5b8201836020820111156104e557600080fd5b8035906020019184600183028401116401000000008311171561050757600080fd5b91908080601f016020809104026020016040519081016040528093929190818152602001838380828437600081840152601f19601f820116905080830192505050505050509192919290505050610e64565b005b610563610ecd565b6040518082815260200191505060405180910390f35b610581610efd565b604051808215151515815260200191505060405180910390f35b6105c9600480360360208110156105b157600080fd5b81019080803515159060200190929190505050610f2d565b005b6105f7600480360360208110156105e157600080fd5b8101908080359060200190929190505050610f5a565b604051808215151515815260200191505060405180910390f35b61065d6004803603604081101561062757600080fd5b8101908080359060200190929190803573ffffffffffffffffffffffffffffffffffffffff169060200190929190505050610fc1565b005b61068b6004803603602081101561067557600080fd5b8101908080359060200190929190505050611079565b6040518080602001828103825283818151815260200191508051906020019080838360005b838110156106cb5780820151818401526020810190506106b0565b50505050905090810190601f1680156106f85780820380516001836020036101000a031916815260200191505b509250505060405180910390f35b61070e61116b565b6040518082815260200191505060405180910390f35b6107506004803603602081101561073a57600080fd5b8101908080359060200190929190505050611171565b6040518082815260200191505060405180910390f35b61076e6111cb565b604051808273ffffffffffffffffffffffffffffffffffffffff1673ffffffffffffffffffffffffffffffffffffffff16815260200191505060405180910390f35b6107e8600480360360408110156107c657600080fd5b81019080803590602001909291908035151590602001909291905050506111fb565b005b6107f2611267565b604051808273ffffffffffffffffffffffffffffffffffffffff1673ffffffffffffffffffffffffffffffffffffffff16815260200191505060405180910390f35b6108606004803603602081101561084a57600080fd5b810190808035906020019092919050505061128d565b6040518082815260200191505060405180910390f35b61092f6004803603602081101561088c57600080fd5b81019080803590602001906401000000008111156108a957600080fd5b8201836020820111156108bb57600080fd5b803590602001918460018302840111640100000000831117156108dd57600080fd5b91908080601f016020809104026020016040519081016040528093929190818152602001838380828437600081840152601f19601f8201169050808301925050505050505091929192905050506112e6565b005b61097d6004803603604081101561094757600080fd5b8101908080359060200190929190803573ffffffffffffffffffffffffffffffffffffffff169060200190929190505050611313565b005b6109876113a6565b005b6109bf6004803603604081101561099f57600080fd5b8101908080359060200190929190803590602001909291905050506113d3565b005b6109c961142b565b604051808573ffffffffffffffffffffffffffffffffffffffff1673ffffffffffffffffffffffffffffffffffffffff1681526020018060200184151515158152602001838152602001828103825285818151815260200191508051906020019080838360005b83811015610a4b578082015181840152602081019050610a30565b50505050905090810190601f168015610a785780820380516001836020036101000a031916815260200191505b509550505050505060405180910390f35b610b4960048036036040811015610a9f57600080fd5b810190808035906020019092919080359060200190640100000000811115610ac657600080fd5b820183602082011115610ad857600080fd5b80359060200191846020830284011164010000000083111715610afa57600080fd5b919080806020026020016040519081016040528093929190818152602001838360200280828437600081840152601f19601f8201169050808301925050505050505091929192905050506114e0565b005b610b767f696e43616368650000000000000000000000000000000000000000000000000060016111fb565b565b610ba27f6974656d4f776e6572000000000000000000000000000000000000000000000082611313565b50565b60068054600181600116156101000203166002900480601f016020809104026020016040519081016040528092919081815260200182805460018160011615610100020316600290048015610c3b5780601f10610c1057610100808354040283529160200191610c3b565b820191906000526020600020905b815481529060010190602001808311610c1e57829003601f168201915b505050505081565b6060610c6e7f6e616d6500000000000000000000000000000000000000000000000000000000611079565b905090565b6000600160003373ffffffffffffffffffffffffffffffffffffffff1673ffffffffffffffffffffffffffffffffffffffff168152602001908152602001600020600083815260200190815260200160002060009054906101000a900473ffffffffffffffffffffffffffffffffffffffff169050919050565b80600460003373ffffffffffffffffffffffffffffffffffffffff1673ffffffffffffffffffffffffffffffffffffffff1681526020019081526020016000206000848152602001908152602001600020819055505050565b610d707f636f6f7264696e6174657300000000000000000000000000000000000000000082610ced565b50565b6060600260003373ffffffffffffffffffffffffffffffffffffffff1673ffffffffffffffffffffffffffffffffffffffff1681526020019081526020016000206000838152602001908152602001600020805480602002602001604051908101604052809291908181526020018280548015610e4557602002820191906000526020600020905b8160009054906101000a900473ffffffffffffffffffffffffffffffffffffffff1673ffffffffffffffffffffffffffffffffffffffff1681526020019060010190808311610dfb575b50505050509050919050565b600760149054906101000a900460ff1681565b80600560003373ffffffffffffffffffffffffffffffffffffffff1673ffffffffffffffffffffffffffffffffffffffff16815260200190815260200160002060008481526020019081526020016000209080519060200190610ec8929190611549565b505050565b6000610ef87f636f6f7264696e61746573000000000000000000000000000000000000000000611171565b905090565b6000610f287f696e436163686500000000000000000000000000000000000000000000000000610f5a565b905090565b610f577f696e436163686500000000000000000000000000000000000000000000000000826111fb565b50565b6000600360003373ffffffffffffffffffffffffffffffffffffffff1673ffffffffffffffffffffffffffffffffffffffff168152602001908152602001600020600083815260200190815260200160002060009054906101000a900460ff169050919050565b600260003373ffffffffffffffffffffffffffffffffffffffff1673ffffffffffffffffffffffffffffffffffffffff16815260200190815260200160002060008381526020019081526020016000208190806001815401808255809150509060018203906000526020600020016000909192909190916101000a81548173ffffffffffffffffffffffffffffffffffffffff021916908373ffffffffffffffffffffffffffffffffffffffff160217905550505050565b6060600560003373ffffffffffffffffffffffffffffffffffffffff1673ffffffffffffffffffffffffffffffffffffffff16815260200190815260200160002060008381526020019081526020016000208054600181600116156101000203166002900480601f01602080910402602001604051908101604052809291908181526020018280546001816001161561010002031660029004801561115f5780601f106111345761010080835404028352916020019161115f565b820191906000526020600020905b81548152906001019060200180831161114257829003601f168201915b50505050509050919050565b60085481565b6000600460003373ffffffffffffffffffffffffffffffffffffffff1673ffffffffffffffffffffffffffffffffffffffff1681526020019081526020016000206000838152602001908152602001600020549050919050565b60006111f67f6974656d4f776e65720000000000000000000000000000000000000000000000610c73565b905090565b80600360003373ffffffffffffffffffffffffffffffffffffffff1673ffffffffffffffffffffffffffffffffffffffff168152602001908152602001600020600084815260200190815260200160002060006101000a81548160ff0219169083151502179055505050565b600760009054906101000a900473ffffffffffffffffffffffffffffffffffffffff1681565b60008060003373ffffffffffffffffffffffffffffffffffffffff1673ffffffffffffffffffffffffffffffffffffffff1681526020019081526020016000206000838152602001908152602001600020549050919050565b6113107f6e616d650000000000000000000000000000000000000000000000000000000082610e64565b50565b80600160003373ffffffffffffffffffffffffffffffffffffffff1673ffffffffffffffffffffffffffffffffffffffff168152602001908152602001600020600084815260200190815260200160002060006101000a81548173ffffffffffffffffffffffffffffffffffffffff021916908373ffffffffffffffffffffffffffffffffffffffff1602179055505050565b6113d17f696e43616368650000000000000000000000000000000000000000000000000060006111fb565b565b806000803373ffffffffffffffffffffffffffffffffffffffff1673ffffffffffffffffffffffffffffffffffffffff1681526020019081526020016000206000848152602001908152602001600020819055505050565b6000606060008061145b7f6974656d4f776e65720000000000000000000000000000000000000000000000610c73565b506114857f6e616d6500000000000000000000000000000000000000000000000000000000611079565b506114af7f696e436163686500000000000000000000000000000000000000000000000000610f5a565b506114d97f636f6f7264696e61746573000000000000000000000000000000000000000000611171565b5090919293565b80600260003373ffffffffffffffffffffffffffffffffffffffff1673ffffffffffffffffffffffffffffffffffffffff168152602001908152602001600020600084815260200190815260200160002090805190602001906115449291906115c9565b505050565b828054600181600116156101000203166002900490600052602060002090601f016020900481019282601f1061158a57805160ff19168380011785556115b8565b828001600101855582156115b8579182015b828111156115b757825182559160200191906001019061159c565b5b5090506115c59190611653565b5090565b828054828255906000526020600020908101928215611642579160200282015b828111156116415782518260006101000a81548173ffffffffffffffffffffffffffffffffffffffff021916908373ffffffffffffffffffffffffffffffffffffffff160217905550916020019190600101906115e9565b5b50905061164f9190611678565b5090565b61167591905b80821115611671576000816000905550600101611659565b5090565b90565b6116b891905b808211156116b457600081816101000a81549073ffffffffffffffffffffffffffffffffffffffff02191690555060010161167e565b5090565b9056fea165627a7a72305820921aa0fcceb8dd1ebc1feb21f823a01f262e574594f2549e4a8ba2726d77534b0029",
  "source": "pragma solidity >0.4.99 <0.6.0;\n\nimport \"../contracts/Storage.sol\";\n\ncontract Chache is Storage {\n\n      //address public owner;\n      string public name;\n      address public itemOwner;\n      bool public inCache;\n      bytes32  public coordinates;\n      \n      function putItemInCache() public {\n            //inCache = true;\n            Storage.setBool(\"inCache\" , true);\n\n      }\n\n      function removeItemFromChache() public {\n            //inCache = false;\n            Storage.setBool(\"inCache\" , false);\n\n      }\n\n      function showItemSpecs() public view returns(address,string memory, bool, bytes32) {\n           //return(address(itemOwner), string(name), bool(inCache), bytes32 (coordinates));\n           Storage.getAddress(\"itemOwner\");\n           Storage.getString(\"name\");\n           Storage.getBool(\"inCache\");\n           Storage.getBytes32(\"coordinates\");\n      }\n\n      function changeItemOwnership(address _newOwner) public {\n            //itemOwner = _newOwner;\n            Storage.setAddress(\"itemOwner\" , _newOwner);\n      }\n      \n      function setName(string memory _name) public {\n            Storage.setString(\"name\" , _name);\n      }\n\n      function setinCache(bool  _inCache) public {\n            Storage.setBool(\"inCache\" , _inCache);\n      }\n\n      function setCoordinates(bytes32 _coordinates) public {\n            Storage.setBytes32(\"coordinates\" , _coordinates);\n      }\n\n      function getOwnership() public view returns(address) {\n            return Storage.getAddress(\"itemOwner\");\n      }\n\n      function getName() public view returns(string memory) {\n            return Storage.getString(\"name\");\n      }\n\n      function getinCache() public view returns(bool) {\n            return Storage.getBool(\"inCache\");\n      }\n\n      function getCoordinates() public view returns(bytes32) {\n            return Storage.getBytes32(\"coordinates\");\n      }\n\n}",
  "sourcePath": "/home/matt/myproject/geo/contracts/Cache.sol",
  "compiler": {
    "name": "solc",
    "version": "0.5.6+commit.b259423e.Emscripten.clang"
  },
  "schemaVersion": "3.0.5",
  "updatedAt": "2019-03-28T01:24:44.063Z",
  "devdoc": {
    "methods": {}
  },
  "userdoc": {
    "methods": {}
  }
}