{
  "contractName": "Chache",
  "abi": [
    {
      "constant": true,
      "inputs": [],
      "name": "name",
      "outputs": [
        {
          "name": "",
          "type": "string"
        }
      ],
      "payable": false,
      "stateMutability": "view",
      "type": "function"
    },
    {
      "constant": true,
      "inputs": [],
      "name": "inCache",
      "outputs": [
        {
          "name": "",
          "type": "bool"
        }
      ],
      "payable": false,
      "stateMutability": "view",
      "type": "function"
    },
    {
      "constant": true,
      "inputs": [],
      "name": "coordinates",
      "outputs": [
        {
          "name": "",
          "type": "bytes32"
        }
      ],
      "payable": false,
      "stateMutability": "view",
      "type": "function"
    },
    {
      "constant": true,
      "inputs": [],
      "name": "itemOwner",
      "outputs": [
        {
          "name": "",
          "type": "address"
        }
      ],
      "payable": false,
      "stateMutability": "view",
      "type": "function"
    },
    {
      "constant": false,
      "inputs": [],
      "name": "putItemInCache",
      "outputs": [],
      "payable": false,
      "stateMutability": "nonpayable",
      "type": "function"
    },
    {
      "constant": false,
      "inputs": [],
      "name": "removeItemFromChache",
      "outputs": [],
      "payable": false,
      "stateMutability": "nonpayable",
      "type": "function"
    },
    {
      "constant": true,
      "inputs": [],
      "name": "showItemSpecs",
      "outputs": [
        {
          "name": "",
          "type": "address"
        },
        {
          "name": "",
          "type": "string"
        },
        {
          "name": "",
          "type": "bool"
        },
        {
          "name": "",
          "type": "bytes32"
        }
      ],
      "payable": false,
      "stateMutability": "view",
      "type": "function"
    }
  ],
  "bytecode": "0x608060405234801561001057600080fd5b506104f7806100206000396000f3fe608060405260043610610083576000357c0100000000000000000000000000000000000000000000000000000000900463ffffffff1680630360f1d51461008857806306fdde031461009f57806361ddffba1461012f578063a4b889b71461015e578063b0b35fc114610189578063d8ff893b146101e0578063e8aeea13146101f7575b600080fd5b34801561009457600080fd5b5061009d6102cc565b005b3480156100ab57600080fd5b506100b46102e8565b6040518080602001828103825283818151815260200191508051906020019080838360005b838110156100f45780820151818401526020810190506100d9565b50505050905090810190601f1680156101215780820380516001836020036101000a031916815260200191505b509250505060405180910390f35b34801561013b57600080fd5b50610144610386565b604051808215151515815260200191505060405180910390f35b34801561016a57600080fd5b50610173610399565b6040518082815260200191505060405180910390f35b34801561019557600080fd5b5061019e61039f565b604051808273ffffffffffffffffffffffffffffffffffffffff1673ffffffffffffffffffffffffffffffffffffffff16815260200191505060405180910390f35b3480156101ec57600080fd5b506101f56103c5565b005b34801561020357600080fd5b5061020c6103e2565b604051808573ffffffffffffffffffffffffffffffffffffffff1673ffffffffffffffffffffffffffffffffffffffff1681526020018060200184151515158152602001838152602001828103825285818151815260200191508051906020019080838360005b8381101561028e578082015181840152602081019050610273565b50505050905090810190601f1680156102bb5780820380516001836020036101000a031916815260200191505b509550505050505060405180910390f35b60018060146101000a81548160ff021916908315150217905550565b60008054600181600116156101000203166002900480601f01602080910402602001604051908101604052809291908181526020018280546001816001161561010002031660029004801561037e5780601f106103535761010080835404028352916020019161037e565b820191906000526020600020905b81548152906001019060200180831161036157829003601f168201915b505050505081565b600160149054906101000a900460ff1681565b60025481565b600160009054906101000a900473ffffffffffffffffffffffffffffffffffffffff1681565b6000600160146101000a81548160ff021916908315150217905550565b60006060600080600160009054906101000a900473ffffffffffffffffffffffffffffffffffffffff166000600160149054906101000a900460ff16600254828054600181600116156101000203166002900480601f0160208091040260200160405190810160405280929190818152602001828054600181600116156101000203166002900480156104b65780601f1061048b576101008083540402835291602001916104b6565b820191906000526020600020905b81548152906001019060200180831161049957829003601f168201915b5050505050925093509350935093509091929356fea165627a7a72305820bcfb203ef2e0b184cae09052c87608f80fa38e20223422e8d06ff952e80bed240029",
  "source": "pragma solidity >0.4.99 <0.6.0;\n\ncontract Chache {\n\n      //address public owner;\n      string public name;\n      address public itemOwner;\n      bool public inCache;\n      bytes32  public coordinates;\n\n      // constructor() public {\n      //       owner = msg.sender;\n      // }\n      \n      function putItemInCache() public {\n            inCache = true;\n\n      }\n\n      function removeItemFromChache() public {\n            inCache = false;\n\n      }\n\n      function showItemSpecs() public view returns(address,string memory, bool, bytes32) {\n           return(address(itemOwner), string(name), bool(inCache), bytes32 (coordinates));\n\n      }\n\n      \n\n\n}",
  "sourcePath": "/home/matt/myproject/geo/contracts/Cache.sol",
  "compiler": {
    "name": "solc",
    "version": "0.5.0+commit.1d4f565a.Emscripten.clang"
  },
  "schemaVersion": "3.0.3",
  "updatedAt": "2019-03-24T01:50:41.283Z",
  "devdoc": {
    "methods": {}
  },
  "userdoc": {
    "methods": {}
  }
}