{
  "contractName": "CreateCache",
  "abi": [
    {
      "constant": true,
      "inputs": [],
      "name": "owner",
      "outputs": [
        {
          "name": "",
          "type": "address"
        }
      ],
      "payable": false,
      "stateMutability": "view",
      "type": "function"
    },
    {
      "inputs": [],
      "payable": false,
      "stateMutability": "nonpayable",
      "type": "constructor"
    },
    {
      "constant": false,
      "inputs": [
        {
          "name": "code",
          "type": "bytes"
        },
        {
          "name": "salt",
          "type": "uint256"
        }
      ],
      "name": "createItem",
      "outputs": [
        {
          "name": "",
          "type": "address"
        }
      ],
      "payable": false,
      "stateMutability": "nonpayable",
      "type": "function"
    },
    {
      "constant": false,
      "inputs": [
        {
          "name": "newBag",
          "type": "address[]"
        }
      ],
      "name": "setAllBags",
      "outputs": [],
      "payable": false,
      "stateMutability": "nonpayable",
      "type": "function"
    },
    {
      "constant": false,
      "inputs": [
        {
          "name": "_item",
          "type": "address"
        }
      ],
      "name": "claimOwnershipOfItem",
      "outputs": [],
      "payable": false,
      "stateMutability": "nonpayable",
      "type": "function"
    },
    {
      "constant": true,
      "inputs": [],
      "name": "listChacherItems",
      "outputs": [
        {
          "name": "",
          "type": "address[]"
        }
      ],
      "payable": false,
      "stateMutability": "view",
      "type": "function"
    }
  ],
  "bytecode": "0x608060405234801561001057600080fd5b50336000806101000a81548173ffffffffffffffffffffffffffffffffffffffff021916908373ffffffffffffffffffffffffffffffffffffffff160217905550610643806100606000396000f3fe60806040526004361061006d576000357c0100000000000000000000000000000000000000000000000000000000900463ffffffff16806313cad377146100725780631ff02d85146101375780636f6d9240146101a35780638da5cb5b146101f4578063f91805101461024b575b600080fd5b34801561007e57600080fd5b506101356004803603602081101561009557600080fd5b81019080803590602001906401000000008111156100b257600080fd5b8201836020820111156100c457600080fd5b803590602001918460208302840111640100000000831117156100e657600080fd5b919080806020026020016040519081016040528093929190818152602001838360200280828437600081840152601f19601f82011690508083019250505050505050919291929050505061035d565b005b34801561014357600080fd5b5061014c610377565b6040518080602001828103825283818151815260200191508051906020019060200280838360005b8381101561018f578082015181840152602081019050610174565b505050509050019250505060405180910390f35b3480156101af57600080fd5b506101f2600480360360208110156101c657600080fd5b81019080803573ffffffffffffffffffffffffffffffffffffffff169060200190929190505050610496565b005b34801561020057600080fd5b506102096104ff565b604051808273ffffffffffffffffffffffffffffffffffffffff1673ffffffffffffffffffffffffffffffffffffffff16815260200191505060405180910390f35b34801561025757600080fd5b5061031b6004803603604081101561026e57600080fd5b810190808035906020019064010000000081111561028b57600080fd5b82018360208201111561029d57600080fd5b803590602001918460018302840111640100000000831117156102bf57600080fd5b91908080601f016020809104026020016040519081016040528093929190818152602001838380828437600081840152601f19601f82011690508083019250505050505050919291929080359060200190929190505050610524565b604051808273ffffffffffffffffffffffffffffffffffffffff1673ffffffffffffffffffffffffffffffffffffffff16815260200191505060405180910390f35b806001908051906020019061037392919061054a565b5050565b6060600080905060008090505b6001805490508110156103a65781806001019250508080600101915050610384565b506060816040519080825280602002602001820160405280156103d85781602001602082028038833980820191505090505b509050600080905060008090505b60018054905081101561048c5760018181548110151561040257fe5b9060005260206000200160009054906101000a900473ffffffffffffffffffffffffffffffffffffffff16838381518110151561043b57fe5b9060200190602002019073ffffffffffffffffffffffffffffffffffffffff16908173ffffffffffffffffffffffffffffffffffffffff1681525050818060010192505080806001019150506103e6565b5081935050505090565b60018190806001815401808255809150509060018203906000526020600020016000909192909190916101000a81548173ffffffffffffffffffffffffffffffffffffffff021916908373ffffffffffffffffffffffffffffffffffffffff1602179055505050565b6000809054906101000a900473ffffffffffffffffffffffffffffffffffffffff1681565b600080828451602086016000f59050803b151561054057600080fd5b8091505092915050565b8280548282559060005260206000209081019282156105c3579160200282015b828111156105c25782518260006101000a81548173ffffffffffffffffffffffffffffffffffffffff021916908373ffffffffffffffffffffffffffffffffffffffff1602179055509160200191906001019061056a565b5b5090506105d091906105d4565b5090565b61061491905b8082111561061057600081816101000a81549073ffffffffffffffffffffffffffffffffffffffff0219169055506001016105da565b5090565b9056fea165627a7a72305820ff83f6a459c6fecf2f28486a667a50f6238f13149cdfb56cc1854f553f4afcf90029",
  "source": "pragma solidity >0.4.99 <0.6.0;\n\n contract Cache {\n      function itemOwner() public pure;\n      function name() public pure;\n      //function itemOwner() public pure;\n      function inChache() public pure;\n      function coordinates() public pure;\n      function putItemInCache() public;\n      function removeItemFromChache() public;\n      function showItemSpecs() public returns(address, bool, bytes32);\n  }   \n\ncontract CreateCache {\n\n  address public owner;\n\n  constructor() public {\n    owner = msg.sender;\n  }\n\n  address[] bag;\n\n  Cache newItem;\n\n\n  \n  // function createItem(string memory _name, bool _inCache , bytes32  _coordinates )\n  // public returns(address) {\n  //       Cache newCache = new Cache( _name, _inCache, _coordinates);//just assume this is correct\n  //       items[owner].push(new Cache(owner, _name, _inCache, _coordinates));//?\n   \n  // }\n\n  function createItem(bytes memory code, uint256 salt) public returns (address){\n    address addr;\n    assembly {\n      addr := create2(0, add(code, 0x20), mload(code), salt)\n      if iszero(extcodesize(addr)) {\n        revert(0, 0)\n      }\n    }\n\n    // emit Deployed(addr, salt);\n\n    return addr;\n  }\n\n  function setAllBags(address[] memory newBag) public {\n      bag = newBag;\n  }\n\n  function claimOwnershipOfItem(address  _item) public{\n   // newItem =new  Cache(_item);\n    // items[owner].push(newItem);\n    // newItem.itemOwner() = owner;\n   // bag = address[] memory _bag;\n    bag.push(_item);\n\n  }\n\n  // function showItemInfo(address _item) public view returns (bool _owned, bool _inCache , \n  // bytes32 coordinate){\n  //   Cache item;\n  //   item = Cache(_item);\n  //   item.showItemSpecs();//is this correct?\n    \n  // }\n\n  function listChacherItems() public view returns ( address[] memory ){\n      uint counter = 0;\n      for (uint j = 0; j<bag.length; j++) {\n          counter++;\n      }\n\n      address[] memory b = new address[](counter);\n\n      uint counter2 = 0;\n      for (uint i = 0; i<bag.length; i++) {\n          b[counter2] = bag[i];\n          counter2++;\n      }\n      return b;\n\n    //itemslist = items[address];\n    // uint l =  bag.lenght;\n    // for(uint i=0 ; i<l; i++)\n    // {\n    //   return bag[i];\n    // }\n\n  }\n\n\n}",
  "sourcePath": "/home/matt/myproject/geo/contracts/GeoCacher.sol",
  "compiler": {
    "name": "solc",
    "version": "0.5.0+commit.1d4f565a.Emscripten.clang"
  },
  "schemaVersion": "3.0.3",
  "updatedAt": "2019-03-23T22:21:08.297Z",
  "devdoc": {
    "methods": {}
  },
  "userdoc": {
    "methods": {}
  }
}