{
  "contractName": "GeoCacher",
  "abi": [
    {
      "constant": true,
      "inputs": [],
      "name": "stateStorage",
      "outputs": [
        {
          "name": "",
          "type": "address"
        }
      ],
      "payable": false,
      "stateMutability": "view",
      "type": "function"
    },
    {
      "constant": true,
      "inputs": [],
      "name": "owner",
      "outputs": [
        {
          "name": "",
          "type": "address"
        }
      ],
      "payable": false,
      "stateMutability": "view",
      "type": "function"
    },
    {
      "inputs": [
        {
          "name": "_stateStorage",
          "type": "address"
        }
      ],
      "payable": false,
      "stateMutability": "nonpayable",
      "type": "constructor"
    },
    {
      "constant": false,
      "inputs": [
        {
          "name": "code",
          "type": "bytes"
        },
        {
          "name": "salt",
          "type": "uint256"
        }
      ],
      "name": "createItem",
      "outputs": [
        {
          "name": "",
          "type": "address"
        }
      ],
      "payable": false,
      "stateMutability": "nonpayable",
      "type": "function"
    },
    {
      "constant": false,
      "inputs": [
        {
          "name": "_item",
          "type": "address"
        }
      ],
      "name": "claimOwnershipOfItem",
      "outputs": [],
      "payable": false,
      "stateMutability": "nonpayable",
      "type": "function"
    },
    {
      "constant": false,
      "inputs": [],
      "name": "listChacherItems",
      "outputs": [
        {
          "name": "",
          "type": "address[]"
        }
      ],
      "payable": false,
      "stateMutability": "nonpayable",
      "type": "function"
    },
    {
      "constant": false,
      "inputs": [
        {
          "name": "_item",
          "type": "address"
        }
      ],
      "name": "showItemInfo",
      "outputs": [
        {
          "name": "",
          "type": "address"
        },
        {
          "name": "",
          "type": "string"
        },
        {
          "name": "",
          "type": "bool"
        },
        {
          "name": "",
          "type": "bytes32"
        }
      ],
      "payable": false,
      "stateMutability": "nonpayable",
      "type": "function"
    },
    {
      "constant": false,
      "inputs": [
        {
          "name": "_item",
          "type": "address"
        }
      ],
      "name": "placeItemInCache",
      "outputs": [
        {
          "name": "",
          "type": "bool"
        }
      ],
      "payable": false,
      "stateMutability": "nonpayable",
      "type": "function"
    },
    {
      "constant": false,
      "inputs": [
        {
          "name": "_item",
          "type": "address"
        }
      ],
      "name": "eliminateItemFromCache",
      "outputs": [
        {
          "name": "",
          "type": "bool"
        }
      ],
      "payable": false,
      "stateMutability": "nonpayable",
      "type": "function"
    }
  ],
  "bytecode": "0x608060405234801561001057600080fd5b506040516020806110ac8339810180604052602081101561003057600080fd5b8101908080519060200190929190505050336000806101000a81548173ffffffffffffffffffffffffffffffffffffffff021916908373ffffffffffffffffffffffffffffffffffffffff16021790555080600160006101000a81548173ffffffffffffffffffffffffffffffffffffffff021916908373ffffffffffffffffffffffffffffffffffffffff16021790555050610fda806100d26000396000f3fe60806040526004361061008e576000357c0100000000000000000000000000000000000000000000000000000000900463ffffffff168063101661c6146100935780631b2bb318146100fc5780631ff02d85146101535780632299a31f146101bf5780636f6d9240146102ce5780638da5cb5b1461031f578063da49295b14610376578063f9180510146103df575b600080fd5b34801561009f57600080fd5b506100e2600480360360208110156100b657600080fd5b81019080803573ffffffffffffffffffffffffffffffffffffffff1690602001909291905050506104f1565b604051808215151515815260200191505060405180910390f35b34801561010857600080fd5b50610111610682565b604051808273ffffffffffffffffffffffffffffffffffffffff1673ffffffffffffffffffffffffffffffffffffffff16815260200191505060405180910390f35b34801561015f57600080fd5b506101686106a8565b6040518080602001828103825283818151815260200191508051906020019060200280838360005b838110156101ab578082015181840152602081019050610190565b505050509050019250505060405180910390f35b3480156101cb57600080fd5b5061020e600480360360208110156101e257600080fd5b81019080803573ffffffffffffffffffffffffffffffffffffffff169060200190929190505050610a9c565b604051808573ffffffffffffffffffffffffffffffffffffffff1673ffffffffffffffffffffffffffffffffffffffff1681526020018060200184151515158152602001838152602001828103825285818151815260200191508051906020019080838360005b83811015610290578082015181840152602081019050610275565b50505050905090810190601f1680156102bd5780820380516001836020036101000a031916815260200191505b509550505050505060405180910390f35b3480156102da57600080fd5b5061031d600480360360208110156102f157600080fd5b81019080803573ffffffffffffffffffffffffffffffffffffffff169060200190929190505050610bc4565b005b34801561032b57600080fd5b50610334610dd2565b604051808273ffffffffffffffffffffffffffffffffffffffff1673ffffffffffffffffffffffffffffffffffffffff16815260200191505060405180910390f35b34801561038257600080fd5b506103c56004803603602081101561039957600080fd5b81019080803573ffffffffffffffffffffffffffffffffffffffff169060200190929190505050610df7565b604051808215151515815260200191505060405180910390f35b3480156103eb57600080fd5b506104af6004803603604081101561040257600080fd5b810190808035906020019064010000000081111561041f57600080fd5b82018360208201111561043157600080fd5b8035906020019184600183028401116401000000008311171561045357600080fd5b91908080601f016020809104026020016040519081016040528093929190818152602001838380828437600081840152601f19601f82011690508083019250505050505050919291929080359060200190929190505050610f88565b604051808273ffffffffffffffffffffffffffffffffffffffff1673ffffffffffffffffffffffffffffffffffffffff16815260200191505060405180910390f35b60008060009054906101000a900473ffffffffffffffffffffffffffffffffffffffff1673ffffffffffffffffffffffffffffffffffffffff163373ffffffffffffffffffffffffffffffffffffffff1614151561054e57600080fd5b600115158273ffffffffffffffffffffffffffffffffffffffff16637823f6106040518163ffffffff167c010000000000000000000000000000000000000000000000000000000002815260040160206040518083038186803b1580156105b457600080fd5b505afa1580156105c8573d6000803e3d6000fd5b505050506040513d60208110156105de57600080fd5b810190808051906020019092919050505015151415156105fd57600080fd5b8173ffffffffffffffffffffffffffffffffffffffff1663d8ff893b6040518163ffffffff167c0100000000000000000000000000000000000000000000000000000000028152600401600060405180830381600087803b15801561066157600080fd5b505af1158015610675573d6000803e3d6000fd5b5050505060019050919050565b600160009054906101000a900473ffffffffffffffffffffffffffffffffffffffff1681565b60606000809054906101000a900473ffffffffffffffffffffffffffffffffffffffff1673ffffffffffffffffffffffffffffffffffffffff163373ffffffffffffffffffffffffffffffffffffffff1614151561070557600080fd5b600080905060008090505b600160009054906101000a900473ffffffffffffffffffffffffffffffffffffffff1673ffffffffffffffffffffffffffffffffffffffff16635948f7336040518163ffffffff167c010000000000000000000000000000000000000000000000000000000002815260040180807f62616700000000000000000000000000000000000000000000000000000000008152506020019050600060405180830381600087803b1580156107c157600080fd5b505af11580156107d5573d6000803e3d6000fd5b505050506040513d6000823e3d601f19601f8201168201806040525060208110156107ff57600080fd5b81019080805164010000000081111561081757600080fd5b8281019050602081018481111561082d57600080fd5b815185602082028301116401000000008211171561084a57600080fd5b50509291905050505181101561086f5781806001019250508080600101915050610710565b506060816040519080825280602002602001820160405280156108a15781602001602082028038833980820191505090505b509050600080905060008090505b600160009054906101000a900473ffffffffffffffffffffffffffffffffffffffff1673ffffffffffffffffffffffffffffffffffffffff16635948f7336040518163ffffffff167c010000000000000000000000000000000000000000000000000000000002815260040180807f62616700000000000000000000000000000000000000000000000000000000008152506020019050600060405180830381600087803b15801561096057600080fd5b505af1158015610974573d6000803e3d6000fd5b505050506040513d6000823e3d601f19601f82011682018060405250602081101561099e57600080fd5b8101908080516401000000008111156109b657600080fd5b828101905060208101848111156109cc57600080fd5b81518560208202830111640100000000821117156109e957600080fd5b505092919050505051811015610a9257600281815481101515610a0857fe5b9060005260206000200160009054906101000a900473ffffffffffffffffffffffffffffffffffffffff168383815181101515610a4157fe5b9060200190602002019073ffffffffffffffffffffffffffffffffffffffff16908173ffffffffffffffffffffffffffffffffffffffff1681525050818060010192505080806001019150506108af565b5081935050505090565b600060606000808473ffffffffffffffffffffffffffffffffffffffff1663e8aeea136040518163ffffffff167c0100000000000000000000000000000000000000000000000000000000028152600401600060405180830381600087803b158015610b0757600080fd5b505af1158015610b1b573d6000803e3d6000fd5b505050506040513d6000823e3d601f19601f820116820180604052506080811015610b4557600080fd5b81019080805190602001909291908051640100000000811115610b6757600080fd5b82810190506020810184811115610b7d57600080fd5b8151856001820283011164010000000082111715610b9a57600080fd5b50509291906020018051906020019092919080519060200190929190505050505050509193509193565b6000809054906101000a900473ffffffffffffffffffffffffffffffffffffffff1673ffffffffffffffffffffffffffffffffffffffff163373ffffffffffffffffffffffffffffffffffffffff16141515610c1f57600080fd5b600160009054906101000a900473ffffffffffffffffffffffffffffffffffffffff1673ffffffffffffffffffffffffffffffffffffffff166388a0072a826040518263ffffffff167c010000000000000000000000000000000000000000000000000000000002815260040180807f62616700000000000000000000000000000000000000000000000000000000008152506020018273ffffffffffffffffffffffffffffffffffffffff1673ffffffffffffffffffffffffffffffffffffffff168152602001915050600060405180830381600087803b158015610d0457600080fd5b505af1158015610d18573d6000803e3d6000fd5b505050508073ffffffffffffffffffffffffffffffffffffffff166303f4e559336040518263ffffffff167c0100000000000000000000000000000000000000000000000000000000028152600401808273ffffffffffffffffffffffffffffffffffffffff1673ffffffffffffffffffffffffffffffffffffffff168152602001915050600060405180830381600087803b158015610db757600080fd5b505af1158015610dcb573d6000803e3d6000fd5b5050505050565b6000809054906101000a900473ffffffffffffffffffffffffffffffffffffffff1681565b60008060009054906101000a900473ffffffffffffffffffffffffffffffffffffffff1673ffffffffffffffffffffffffffffffffffffffff163373ffffffffffffffffffffffffffffffffffffffff16141515610e5457600080fd5b600015158273ffffffffffffffffffffffffffffffffffffffff16637823f6106040518163ffffffff167c010000000000000000000000000000000000000000000000000000000002815260040160206040518083038186803b158015610eba57600080fd5b505afa158015610ece573d6000803e3d6000fd5b505050506040513d6020811015610ee457600080fd5b81019080805190602001909291905050501515141515610f0357600080fd5b8173ffffffffffffffffffffffffffffffffffffffff16630360f1d56040518163ffffffff167c0100000000000000000000000000000000000000000000000000000000028152600401600060405180830381600087803b158015610f6757600080fd5b505af1158015610f7b573d6000803e3d6000fd5b5050505060019050919050565b600080828451602086016000f59050803b1515610fa457600080fd5b809150509291505056fea165627a7a72305820f53dbb3db41f50b14302a68da1069925ad0d48e19c8381f58fb6c29b8ec7c64a0029",
  "source": "pragma solidity >0.4.99 <0.6.0;\n\ninterface StateStorage { \n\n    function getAddress(bytes32 key) external returns (address);\n    function getAddressArray(bytes32 key) external returns (address[] memory);\n    function getUint(bytes32 key) external returns (uint);\n    function getBool(bytes32 key) external returns (bool);\n    function getBytes32(bytes32 key) external returns (bytes32);\n    function getString(bytes32 key) external returns (string memory);\n    function setAddressArray(bytes32 key, address[] calldata value) external;\n    function updateAddressArray(bytes32 key, address  value) external;\n    function setAddress(bytes32 key, address value) external;\n    function setUint(bytes32 key, uint value) external;\n    function setBool(bytes32 key, bool value) external;\n    function setBytes32(bytes32 key, bytes32 value) external;\n    function setString(bytes32 key, string calldata value) external;\n}\n\ncontract Item {\n\n    function name() public pure returns (string memory) {}\n    function itemOwner() public pure returns(address){}\n    function inCache() public pure returns (bool) {}\n    function coordinates() public pure returns (bytes32) {}\n    function getinCache() public pure returns (bool){}\n    function putItemInCache() public;\n    function setName() public;\n    function setinCache() public;\n    function setCoordinates() public;\n    function getOwnership() public view returns(address);\n    function getName() public view returns(string memory);\n    function getCoordinates() public view returns(bytes32);\n    function removeItemFromChache() public;\n    function showItemSpecs() public returns(address, string memory, bool, bytes32);\n    function changeItemOwnership(address) public;\n    }   \n\ncontract GeoCacher  {\n\n    address public owner;\n    //Item public newItem;\n    StateStorage public stateStorage;\n    address[] bag;\n\n    constructor(StateStorage _stateStorage) public {\n        owner = msg.sender;\n        stateStorage = _stateStorage;\n        //newItem = _newItem;\n    }\n\n    modifier onlyOwner() {\n        require(msg.sender == owner);\n        _;\n    }\n\n    function createItem(bytes memory code, uint256 salt) public  returns (address){\n        address addr;\n        assembly {\n            addr := create2(0, add(code, 0x20), mload(code), salt)\n            if iszero(extcodesize(addr)) {\n                revert(0, 0)\n            }\n        }\n        return addr;\n    }\n\n    function setTheBag() private {\n        address[] memory someBag;\n        stateStorage.setAddressArray(\"bag\" , someBag );\n    }\n\n    // function claimOwnershipOfItem(address  _item) public onlyOwner {\n    //     stateStorage.updateAddressArray(\"bag\" , _item );//???\n    //     newItem = Item(_item);\n    //     newItem.changeItemOwnership(_item);\n    // }\n\n    function claimOwnershipOfItem(Item _item) public onlyOwner{\n        // \n        stateStorage.updateAddressArray(\"bag\" , address(_item ));\n        _item.changeItemOwnership(msg.sender);\n    }\n\n    function listChacherItems() public  onlyOwner  returns ( address[] memory ){\n        uint counter = 0;\n        for (uint j = 0; j<stateStorage.getAddressArray(\"bag\").length; j++) {\n            counter++;\n        }\n        address[] memory b = new address[](counter);\n        uint counter2 = 0;\n        for (uint i = 0; i<stateStorage.getAddressArray(\"bag\").length; i++) {\n            b[counter2] = bag[i];\n            counter2++;\n        }\n        return b;\n    }\n\n    function showItemInfo(Item  _item) public  returns (address, string memory, bool, bytes32){\n        _item.showItemSpecs();\n\n    }\n\n    function placeItemInCache(Item _item) public onlyOwner returns(bool) {\n        require(_item.getinCache() == false);\n        _item.putItemInCache();\n        return true;\n    }\n\n    function eliminateItemFromCache(Item _item) public onlyOwner returns (bool) {\n        require(_item.getinCache() == true);\n        _item.removeItemFromChache();\n        return true;\n    }\n\n}",
  "sourcePath": "/home/matt/myproject/geo/contracts/GeoCacher.sol",
  "compiler": {
    "name": "solc",
    "version": "0.5.0+commit.1d4f565a.Emscripten.clang"
  },
  "schemaVersion": "3.0.5",
  "updatedAt": "2019-04-04T17:36:46.805Z",
  "devdoc": {
    "methods": {}
  },
  "userdoc": {
    "methods": {}
  }
}