{
  "contractName": "GeoCacher",
  "abi": [
    {
      "constant": true,
      "inputs": [],
      "name": "owner",
      "outputs": [
        {
          "name": "",
          "type": "address"
        }
      ],
      "payable": false,
      "stateMutability": "view",
      "type": "function"
    },
    {
      "inputs": [],
      "payable": false,
      "stateMutability": "nonpayable",
      "type": "constructor"
    },
    {
      "constant": false,
      "inputs": [
        {
          "name": "code",
          "type": "bytes"
        },
        {
          "name": "salt",
          "type": "uint256"
        }
      ],
      "name": "createItem",
      "outputs": [
        {
          "name": "",
          "type": "address"
        }
      ],
      "payable": false,
      "stateMutability": "nonpayable",
      "type": "function"
    },
    {
      "constant": false,
      "inputs": [
        {
          "name": "_item",
          "type": "address"
        }
      ],
      "name": "claimOwnershipOfItem",
      "outputs": [],
      "payable": false,
      "stateMutability": "nonpayable",
      "type": "function"
    },
    {
      "constant": true,
      "inputs": [],
      "name": "listChacherItems",
      "outputs": [
        {
          "name": "",
          "type": "address[]"
        }
      ],
      "payable": false,
      "stateMutability": "view",
      "type": "function"
    },
    {
      "constant": false,
      "inputs": [
        {
          "name": "_item",
          "type": "address"
        }
      ],
      "name": "showItemInfo",
      "outputs": [
        {
          "name": "",
          "type": "address"
        },
        {
          "name": "",
          "type": "string"
        },
        {
          "name": "",
          "type": "bool"
        },
        {
          "name": "",
          "type": "bytes32"
        }
      ],
      "payable": false,
      "stateMutability": "nonpayable",
      "type": "function"
    },
    {
      "constant": false,
      "inputs": [
        {
          "name": "_item",
          "type": "address"
        }
      ],
      "name": "placeItemInCache",
      "outputs": [
        {
          "name": "",
          "type": "bool"
        }
      ],
      "payable": false,
      "stateMutability": "nonpayable",
      "type": "function"
    },
    {
      "constant": false,
      "inputs": [
        {
          "name": "_item",
          "type": "address"
        }
      ],
      "name": "eliminateItemFromCache",
      "outputs": [
        {
          "name": "",
          "type": "bool"
        }
      ],
      "payable": false,
      "stateMutability": "nonpayable",
      "type": "function"
    }
  ],
  "bytecode": "0x608060405234801561001057600080fd5b50336000806101000a81548173ffffffffffffffffffffffffffffffffffffffff021916908373ffffffffffffffffffffffffffffffffffffffff160217905550610b8f806100606000396000f3fe608060405260043610610083576000357c0100000000000000000000000000000000000000000000000000000000900463ffffffff168063101661c6146100885780631ff02d85146100f15780632299a31f1461015d5780636f6d92401461026c5780638da5cb5b146102bd578063da49295b14610314578063f91805101461037d575b600080fd5b34801561009457600080fd5b506100d7600480360360208110156100ab57600080fd5b81019080803573ffffffffffffffffffffffffffffffffffffffff16906020019092919050505061048f565b604051808215151515815260200191505060405180910390f35b3480156100fd57600080fd5b5061010661064a565b6040518080602001828103825283818151815260200191508051906020019060200280838360005b8381101561014957808201518184015260208101905061012e565b505050509050019250505060405180910390f35b34801561016957600080fd5b506101ac6004803603602081101561018057600080fd5b81019080803573ffffffffffffffffffffffffffffffffffffffff169060200190929190505050610769565b604051808573ffffffffffffffffffffffffffffffffffffffff1673ffffffffffffffffffffffffffffffffffffffff1681526020018060200184151515158152602001838152602001828103825285818151815260200191508051906020019080838360005b8381101561022e578082015181840152602081019050610213565b50505050905090810190601f16801561025b5780820380516001836020036101000a031916815260200191505b509550505050505060405180910390f35b34801561027857600080fd5b506102bb6004803603602081101561028f57600080fd5b81019080803573ffffffffffffffffffffffffffffffffffffffff1690602001909291905050506108f4565b005b3480156102c957600080fd5b506102d261095d565b604051808273ffffffffffffffffffffffffffffffffffffffff1673ffffffffffffffffffffffffffffffffffffffff16815260200191505060405180910390f35b34801561032057600080fd5b506103636004803603602081101561033757600080fd5b81019080803573ffffffffffffffffffffffffffffffffffffffff169060200190929190505050610982565b604051808215151515815260200191505060405180910390f35b34801561038957600080fd5b5061044d600480360360408110156103a057600080fd5b81019080803590602001906401000000008111156103bd57600080fd5b8201836020820111156103cf57600080fd5b803590602001918460018302840111640100000000831117156103f157600080fd5b91908080601f016020809104026020016040519081016040528093929190818152602001838380828437600081840152601f19601f82011690508083019250505050505050919291929080359060200190929190505050610b3d565b604051808273ffffffffffffffffffffffffffffffffffffffff1673ffffffffffffffffffffffffffffffffffffffff16815260200191505060405180910390f35b600081600260006101000a81548173ffffffffffffffffffffffffffffffffffffffff021916908373ffffffffffffffffffffffffffffffffffffffff16021790555060011515600260009054906101000a900473ffffffffffffffffffffffffffffffffffffffff1673ffffffffffffffffffffffffffffffffffffffff16631742b2f96040518163ffffffff167c010000000000000000000000000000000000000000000000000000000002815260040160206040518083038186803b15801561055a57600080fd5b505afa15801561056e573d6000803e3d6000fd5b505050506040513d602081101561058457600080fd5b810190808051906020019092919050505015151415156105a357600080fd5b600260009054906101000a900473ffffffffffffffffffffffffffffffffffffffff1673ffffffffffffffffffffffffffffffffffffffff1663d8ff893b6040518163ffffffff167c0100000000000000000000000000000000000000000000000000000000028152600401600060405180830381600087803b15801561062957600080fd5b505af115801561063d573d6000803e3d6000fd5b5050505060019050919050565b6060600080905060008090505b6001805490508110156106795781806001019250508080600101915050610657565b506060816040519080825280602002602001820160405280156106ab5781602001602082028038833980820191505090505b509050600080905060008090505b60018054905081101561075f576001818154811015156106d557fe5b9060005260206000200160009054906101000a900473ffffffffffffffffffffffffffffffffffffffff16838381518110151561070e57fe5b9060200190602002019073ffffffffffffffffffffffffffffffffffffffff16908173ffffffffffffffffffffffffffffffffffffffff1681525050818060010192505080806001019150506106b9565b5081935050505090565b6000606060008084600260006101000a81548173ffffffffffffffffffffffffffffffffffffffff021916908373ffffffffffffffffffffffffffffffffffffffff160217905550600260009054906101000a900473ffffffffffffffffffffffffffffffffffffffff1673ffffffffffffffffffffffffffffffffffffffff1663e8aeea136040518163ffffffff167c0100000000000000000000000000000000000000000000000000000000028152600401600060405180830381600087803b15801561083757600080fd5b505af115801561084b573d6000803e3d6000fd5b505050506040513d6000823e3d601f19601f82011682018060405250608081101561087557600080fd5b8101908080519060200190929190805164010000000081111561089757600080fd5b828101905060208101848111156108ad57600080fd5b81518560018202830111640100000000821117156108ca57600080fd5b50509291906020018051906020019092919080519060200190929190505050505050509193509193565b60018190806001815401808255809150509060018203906000526020600020016000909192909190916101000a81548173ffffffffffffffffffffffffffffffffffffffff021916908373ffffffffffffffffffffffffffffffffffffffff1602179055505050565b6000809054906101000a900473ffffffffffffffffffffffffffffffffffffffff1681565b600081600260006101000a81548173ffffffffffffffffffffffffffffffffffffffff021916908373ffffffffffffffffffffffffffffffffffffffff16021790555060001515600260009054906101000a900473ffffffffffffffffffffffffffffffffffffffff1673ffffffffffffffffffffffffffffffffffffffff16631742b2f96040518163ffffffff167c010000000000000000000000000000000000000000000000000000000002815260040160206040518083038186803b158015610a4d57600080fd5b505afa158015610a61573d6000803e3d6000fd5b505050506040513d6020811015610a7757600080fd5b81019080805190602001909291905050501515141515610a9657600080fd5b600260009054906101000a900473ffffffffffffffffffffffffffffffffffffffff1673ffffffffffffffffffffffffffffffffffffffff16630360f1d56040518163ffffffff167c0100000000000000000000000000000000000000000000000000000000028152600401600060405180830381600087803b158015610b1c57600080fd5b505af1158015610b30573d6000803e3d6000fd5b5050505060019050919050565b600080828451602086016000f59050803b1515610b5957600080fd5b809150509291505056fea165627a7a72305820657175cfb216cff647f91184272ba1b2109898f99f8a4b8d2481d1ce763fa1c10029",
  "source": "pragma solidity >0.4.99 <0.6.0;\n\ncontract Cache {\n      function itemOwner() public pure returns (address){}\n      function name() public pure returns (string memory) {}\n      function inChache() public pure returns (bool) {}\n      function coordinates() public pure returns (bytes32) {}\n      function putItemInCache() public;\n      function removeItemFromChache() public;\n      function showItemSpecs() public returns(address, string memory, bool, bytes32);\n  }   \n\ncontract GeoCacher {\n\n  address public owner;\n\n  constructor() public {\n    owner = msg.sender;\n  }\n\n  address[] bag;\n\n  Cache newItem;\n  \n  function createItem(bytes memory code, uint256 salt) public returns (address){\n    address addr;\n    assembly {\n      addr := create2(0, add(code, 0x20), mload(code), salt)\n      if iszero(extcodesize(addr)) {\n        revert(0, 0)\n      }\n    }\n\n    return addr;\n  }\n\n  function setAllBags(address[] memory newBag) private {\n    bag = newBag;\n  }\n\n  function claimOwnershipOfItem(address  _item) public{\n    bag.push(_item);\n\n  }\n\n  function listChacherItems() public view returns ( address[] memory ){\n      uint counter = 0;\n      for (uint j = 0; j<bag.length; j++) {\n          counter++;\n      }\n\n      address[] memory b = new address[](counter);\n\n      uint counter2 = 0;\n      for (uint i = 0; i<bag.length; i++) {\n          b[counter2] = bag[i];\n          counter2++;\n      }\n      return b;\n  }\n\n  function showItemInfo(address  _item) public  returns (address, string memory, bool, bytes32){\n    newItem = Cache(_item);\n    newItem.showItemSpecs();\n    \n  }\n\n  function placeItemInCache(address _item) public returns(bool) {\n    newItem = Cache(_item);\n    require(newItem.inChache() == false);\n    newItem.putItemInCache();\n    return true;\n  }\n\n  function eliminateItemFromCache(address _item) public returns (bool) {\n    newItem = Cache(_item);\n    require(newItem.inChache() == true);\n    newItem.removeItemFromChache();\n    return true;\n  }\n\n}",
  "sourcePath": "/home/matt/myproject/geo/contracts/GeoCacher.sol",
  "compiler": {
    "name": "solc",
    "version": "0.5.0+commit.1d4f565a.Emscripten.clang"
  },
  "schemaVersion": "3.0.3",
  "updatedAt": "2019-03-24T02:16:48.829Z",
  "devdoc": {
    "methods": {}
  },
  "userdoc": {
    "methods": {}
  }
}