{
  "contractName": "GeoCacher",
  "abi": [
    {
      "constant": true,
      "inputs": [
        {
          "name": "key",
          "type": "bytes32"
        }
      ],
      "name": "getAddress",
      "outputs": [
        {
          "name": "",
          "type": "address"
        }
      ],
      "payable": false,
      "stateMutability": "view",
      "type": "function"
    },
    {
      "constant": false,
      "inputs": [
        {
          "name": "key",
          "type": "bytes32"
        },
        {
          "name": "value",
          "type": "bytes32"
        }
      ],
      "name": "setBytes32",
      "outputs": [],
      "payable": false,
      "stateMutability": "nonpayable",
      "type": "function"
    },
    {
      "constant": false,
      "inputs": [
        {
          "name": "key",
          "type": "bytes32"
        },
        {
          "name": "value",
          "type": "string"
        }
      ],
      "name": "setString",
      "outputs": [],
      "payable": false,
      "stateMutability": "nonpayable",
      "type": "function"
    },
    {
      "constant": true,
      "inputs": [
        {
          "name": "key",
          "type": "bytes32"
        }
      ],
      "name": "getBool",
      "outputs": [
        {
          "name": "",
          "type": "bool"
        }
      ],
      "payable": false,
      "stateMutability": "view",
      "type": "function"
    },
    {
      "constant": true,
      "inputs": [],
      "name": "owner",
      "outputs": [
        {
          "name": "",
          "type": "address"
        }
      ],
      "payable": false,
      "stateMutability": "view",
      "type": "function"
    },
    {
      "constant": true,
      "inputs": [
        {
          "name": "key",
          "type": "bytes32"
        }
      ],
      "name": "getString",
      "outputs": [
        {
          "name": "",
          "type": "string"
        }
      ],
      "payable": false,
      "stateMutability": "view",
      "type": "function"
    },
    {
      "constant": true,
      "inputs": [
        {
          "name": "key",
          "type": "bytes32"
        }
      ],
      "name": "getBytes32",
      "outputs": [
        {
          "name": "",
          "type": "bytes32"
        }
      ],
      "payable": false,
      "stateMutability": "view",
      "type": "function"
    },
    {
      "constant": false,
      "inputs": [
        {
          "name": "key",
          "type": "bytes32"
        },
        {
          "name": "value",
          "type": "bool"
        }
      ],
      "name": "setBool",
      "outputs": [],
      "payable": false,
      "stateMutability": "nonpayable",
      "type": "function"
    },
    {
      "constant": true,
      "inputs": [
        {
          "name": "key",
          "type": "bytes32"
        }
      ],
      "name": "getUint",
      "outputs": [
        {
          "name": "",
          "type": "uint256"
        }
      ],
      "payable": false,
      "stateMutability": "view",
      "type": "function"
    },
    {
      "constant": false,
      "inputs": [
        {
          "name": "key",
          "type": "bytes32"
        },
        {
          "name": "value",
          "type": "address"
        }
      ],
      "name": "setAddress",
      "outputs": [],
      "payable": false,
      "stateMutability": "nonpayable",
      "type": "function"
    },
    {
      "constant": false,
      "inputs": [
        {
          "name": "key",
          "type": "bytes32"
        },
        {
          "name": "value",
          "type": "uint256"
        }
      ],
      "name": "setUint",
      "outputs": [],
      "payable": false,
      "stateMutability": "nonpayable",
      "type": "function"
    },
    {
      "inputs": [],
      "payable": false,
      "stateMutability": "nonpayable",
      "type": "constructor"
    },
    {
      "constant": false,
      "inputs": [
        {
          "name": "code",
          "type": "bytes"
        },
        {
          "name": "salt",
          "type": "uint256"
        }
      ],
      "name": "createItem",
      "outputs": [
        {
          "name": "",
          "type": "address"
        }
      ],
      "payable": false,
      "stateMutability": "nonpayable",
      "type": "function"
    },
    {
      "constant": false,
      "inputs": [
        {
          "name": "_item",
          "type": "address"
        }
      ],
      "name": "claimOwnershipOfItem",
      "outputs": [],
      "payable": false,
      "stateMutability": "nonpayable",
      "type": "function"
    },
    {
      "constant": true,
      "inputs": [],
      "name": "listChacherItems",
      "outputs": [
        {
          "name": "",
          "type": "address[]"
        }
      ],
      "payable": false,
      "stateMutability": "view",
      "type": "function"
    },
    {
      "constant": false,
      "inputs": [
        {
          "name": "_item",
          "type": "address"
        }
      ],
      "name": "showItemInfo",
      "outputs": [
        {
          "name": "",
          "type": "address"
        },
        {
          "name": "",
          "type": "string"
        },
        {
          "name": "",
          "type": "bool"
        },
        {
          "name": "",
          "type": "bytes32"
        }
      ],
      "payable": false,
      "stateMutability": "nonpayable",
      "type": "function"
    },
    {
      "constant": false,
      "inputs": [
        {
          "name": "_item",
          "type": "address"
        }
      ],
      "name": "placeItemInCache",
      "outputs": [
        {
          "name": "",
          "type": "bool"
        }
      ],
      "payable": false,
      "stateMutability": "nonpayable",
      "type": "function"
    },
    {
      "constant": false,
      "inputs": [
        {
          "name": "_item",
          "type": "address"
        }
      ],
      "name": "eliminateItemFromCache",
      "outputs": [
        {
          "name": "",
          "type": "bool"
        }
      ],
      "payable": false,
      "stateMutability": "nonpayable",
      "type": "function"
    }
  ],
  "bytecode": "0x608060405234801561001057600080fd5b5033600560006101000a81548173ffffffffffffffffffffffffffffffffffffffff021916908373ffffffffffffffffffffffffffffffffffffffff160217905550611843806100616000396000f3fe6080604052600436106100f1576000357c0100000000000000000000000000000000000000000000000000000000900463ffffffff168063101661c6146100f65780631ff02d851461015f57806321f8a721146101cb5780632299a31f146102465780634e91db08146103555780636e8995501461039a5780636f6d92401461046c5780637ae1cfca146104bd5780638da5cb5b14610510578063986e791a14610567578063a6ed563e1461061b578063abfdcced1461066a578063bd02d0f5146106b1578063ca446dd914610700578063da49295b1461075b578063e2a4853a146107c4578063f918051014610809575b600080fd5b34801561010257600080fd5b506101456004803603602081101561011957600080fd5b81019080803573ffffffffffffffffffffffffffffffffffffffff16906020019092919050505061091b565b604051808215151515815260200191505060405180910390f35b34801561016b57600080fd5b50610174610b32565b6040518080602001828103825283818151815260200191508051906020019060200280838360005b838110156101b757808201518184015260208101905061019c565b505050509050019250505060405180910390f35b3480156101d757600080fd5b50610204600480360360208110156101ee57600080fd5b8101908080359060200190929190505050610cad565b604051808273ffffffffffffffffffffffffffffffffffffffff1673ffffffffffffffffffffffffffffffffffffffff16815260200191505060405180910390f35b34801561025257600080fd5b506102956004803603602081101561026957600080fd5b81019080803573ffffffffffffffffffffffffffffffffffffffff169060200190929190505050610d27565b604051808573ffffffffffffffffffffffffffffffffffffffff1673ffffffffffffffffffffffffffffffffffffffff1681526020018060200184151515158152602001838152602001828103825285818151815260200191508051906020019080838360005b838110156103175780820151818401526020810190506102fc565b50505050905090810190601f1680156103445780820380516001836020036101000a031916815260200191505b509550505050505060405180910390f35b34801561036157600080fd5b506103986004803603604081101561037857600080fd5b810190808035906020019092919080359060200190929190505050610eb2565b005b3480156103a657600080fd5b5061046a600480360360408110156103bd57600080fd5b8101908080359060200190929190803590602001906401000000008111156103e457600080fd5b8201836020820111156103f657600080fd5b8035906020019184600183028401116401000000008311171561041857600080fd5b91908080601f016020809104026020016040519081016040528093929190818152602001838380828437600081840152601f19601f820116905080830192505050505050509192919290505050610f0b565b005b34801561047857600080fd5b506104bb6004803603602081101561048f57600080fd5b81019080803573ffffffffffffffffffffffffffffffffffffffff169060200190929190505050610f74565b005b3480156104c957600080fd5b506104f6600480360360208110156104e057600080fd5b810190808035906020019092919050505061114f565b604051808215151515815260200191505060405180910390f35b34801561051c57600080fd5b506105256111b6565b604051808273ffffffffffffffffffffffffffffffffffffffff1673ffffffffffffffffffffffffffffffffffffffff16815260200191505060405180910390f35b34801561057357600080fd5b506105a06004803603602081101561058a57600080fd5b81019080803590602001909291905050506111dc565b6040518080602001828103825283818151815260200191508051906020019080838360005b838110156105e05780820151818401526020810190506105c5565b50505050905090810190601f16801561060d5780820380516001836020036101000a031916815260200191505b509250505060405180910390f35b34801561062757600080fd5b506106546004803603602081101561063e57600080fd5b81019080803590602001909291905050506112ce565b6040518082815260200191505060405180910390f35b34801561067657600080fd5b506106af6004803603604081101561068d57600080fd5b8101908080359060200190929190803515159060200190929190505050611328565b005b3480156106bd57600080fd5b506106ea600480360360208110156106d457600080fd5b8101908080359060200190929190505050611394565b6040518082815260200191505060405180910390f35b34801561070c57600080fd5b506107596004803603604081101561072357600080fd5b8101908080359060200190929190803573ffffffffffffffffffffffffffffffffffffffff1690602001909291905050506113ed565b005b34801561076757600080fd5b506107aa6004803603602081101561077e57600080fd5b81019080803573ffffffffffffffffffffffffffffffffffffffff169060200190929190505050611480565b604051808215151515815260200191505060405180910390f35b3480156107d057600080fd5b50610807600480360360408110156107e757600080fd5b810190808035906020019092919080359060200190929190505050611697565b005b34801561081557600080fd5b506108d96004803603604081101561082c57600080fd5b810190808035906020019064010000000081111561084957600080fd5b82018360208201111561085b57600080fd5b8035906020019184600183028401116401000000008311171561087d57600080fd5b91908080601f016020809104026020016040519081016040528093929190818152602001838380828437600081840152601f19601f820116905080830192505050505050509192919290803590602001909291905050506116ef565b604051808273ffffffffffffffffffffffffffffffffffffffff1673ffffffffffffffffffffffffffffffffffffffff16815260200191505060405180910390f35b6000600560009054906101000a900473ffffffffffffffffffffffffffffffffffffffff1673ffffffffffffffffffffffffffffffffffffffff163373ffffffffffffffffffffffffffffffffffffffff1614151561097957600080fd5b81600760006101000a81548173ffffffffffffffffffffffffffffffffffffffff021916908373ffffffffffffffffffffffffffffffffffffffff16021790555060011515600760009054906101000a900473ffffffffffffffffffffffffffffffffffffffff1673ffffffffffffffffffffffffffffffffffffffff16631742b2f96040518163ffffffff167c010000000000000000000000000000000000000000000000000000000002815260040160206040518083038186803b158015610a4257600080fd5b505afa158015610a56573d6000803e3d6000fd5b505050506040513d6020811015610a6c57600080fd5b81019080805190602001909291905050501515141515610a8b57600080fd5b600760009054906101000a900473ffffffffffffffffffffffffffffffffffffffff1673ffffffffffffffffffffffffffffffffffffffff1663d8ff893b6040518163ffffffff167c0100000000000000000000000000000000000000000000000000000000028152600401600060405180830381600087803b158015610b1157600080fd5b505af1158015610b25573d6000803e3d6000fd5b5050505060019050919050565b6060600560009054906101000a900473ffffffffffffffffffffffffffffffffffffffff1673ffffffffffffffffffffffffffffffffffffffff163373ffffffffffffffffffffffffffffffffffffffff16141515610b9057600080fd5b600080905060008090505b600680549050811015610bbd5781806001019250508080600101915050610b9b565b50606081604051908082528060200260200182016040528015610bef5781602001602082028038833980820191505090505b509050600080905060008090505b600680549050811015610ca357600681815481101515610c1957fe5b9060005260206000200160009054906101000a900473ffffffffffffffffffffffffffffffffffffffff168383815181101515610c5257fe5b9060200190602002019073ffffffffffffffffffffffffffffffffffffffff16908173ffffffffffffffffffffffffffffffffffffffff168152505081806001019250508080600101915050610bfd565b5081935050505090565b6000600160003373ffffffffffffffffffffffffffffffffffffffff1673ffffffffffffffffffffffffffffffffffffffff168152602001908152602001600020600083815260200190815260200160002060009054906101000a900473ffffffffffffffffffffffffffffffffffffffff169050919050565b6000606060008084600760006101000a81548173ffffffffffffffffffffffffffffffffffffffff021916908373ffffffffffffffffffffffffffffffffffffffff160217905550600760009054906101000a900473ffffffffffffffffffffffffffffffffffffffff1673ffffffffffffffffffffffffffffffffffffffff1663e8aeea136040518163ffffffff167c0100000000000000000000000000000000000000000000000000000000028152600401600060405180830381600087803b158015610df557600080fd5b505af1158015610e09573d6000803e3d6000fd5b505050506040513d6000823e3d601f19601f820116820180604052506080811015610e3357600080fd5b81019080805190602001909291908051640100000000811115610e5557600080fd5b82810190506020810184811115610e6b57600080fd5b8151856001820283011164010000000082111715610e8857600080fd5b50509291906020018051906020019092919080519060200190929190505050505050509193509193565b80600360003373ffffffffffffffffffffffffffffffffffffffff1673ffffffffffffffffffffffffffffffffffffffff1681526020019081526020016000206000848152602001908152602001600020819055505050565b80600460003373ffffffffffffffffffffffffffffffffffffffff1673ffffffffffffffffffffffffffffffffffffffff16815260200190815260200160002060008481526020019081526020016000209080519060200190610f6f929190611772565b505050565b600560009054906101000a900473ffffffffffffffffffffffffffffffffffffffff1673ffffffffffffffffffffffffffffffffffffffff163373ffffffffffffffffffffffffffffffffffffffff16141515610fd057600080fd5b60068190806001815401808255809150509060018203906000526020600020016000909192909190916101000a81548173ffffffffffffffffffffffffffffffffffffffff021916908373ffffffffffffffffffffffffffffffffffffffff1602179055505080600760006101000a81548173ffffffffffffffffffffffffffffffffffffffff021916908373ffffffffffffffffffffffffffffffffffffffff160217905550600760009054906101000a900473ffffffffffffffffffffffffffffffffffffffff1673ffffffffffffffffffffffffffffffffffffffff166303f4e559826040518263ffffffff167c0100000000000000000000000000000000000000000000000000000000028152600401808273ffffffffffffffffffffffffffffffffffffffff1673ffffffffffffffffffffffffffffffffffffffff168152602001915050600060405180830381600087803b15801561113457600080fd5b505af1158015611148573d6000803e3d6000fd5b5050505050565b6000600260003373ffffffffffffffffffffffffffffffffffffffff1673ffffffffffffffffffffffffffffffffffffffff168152602001908152602001600020600083815260200190815260200160002060009054906101000a900460ff169050919050565b600560009054906101000a900473ffffffffffffffffffffffffffffffffffffffff1681565b6060600460003373ffffffffffffffffffffffffffffffffffffffff1673ffffffffffffffffffffffffffffffffffffffff16815260200190815260200160002060008381526020019081526020016000208054600181600116156101000203166002900480601f0160208091040260200160405190810160405280929190818152602001828054600181600116156101000203166002900480156112c25780601f10611297576101008083540402835291602001916112c2565b820191906000526020600020905b8154815290600101906020018083116112a557829003601f168201915b50505050509050919050565b6000600360003373ffffffffffffffffffffffffffffffffffffffff1673ffffffffffffffffffffffffffffffffffffffff1681526020019081526020016000206000838152602001908152602001600020549050919050565b80600260003373ffffffffffffffffffffffffffffffffffffffff1673ffffffffffffffffffffffffffffffffffffffff168152602001908152602001600020600084815260200190815260200160002060006101000a81548160ff0219169083151502179055505050565b60008060003373ffffffffffffffffffffffffffffffffffffffff1673ffffffffffffffffffffffffffffffffffffffff1681526020019081526020016000206000838152602001908152602001600020549050919050565b80600160003373ffffffffffffffffffffffffffffffffffffffff1673ffffffffffffffffffffffffffffffffffffffff168152602001908152602001600020600084815260200190815260200160002060006101000a81548173ffffffffffffffffffffffffffffffffffffffff021916908373ffffffffffffffffffffffffffffffffffffffff1602179055505050565b6000600560009054906101000a900473ffffffffffffffffffffffffffffffffffffffff1673ffffffffffffffffffffffffffffffffffffffff163373ffffffffffffffffffffffffffffffffffffffff161415156114de57600080fd5b81600760006101000a81548173ffffffffffffffffffffffffffffffffffffffff021916908373ffffffffffffffffffffffffffffffffffffffff16021790555060001515600760009054906101000a900473ffffffffffffffffffffffffffffffffffffffff1673ffffffffffffffffffffffffffffffffffffffff16631742b2f96040518163ffffffff167c010000000000000000000000000000000000000000000000000000000002815260040160206040518083038186803b1580156115a757600080fd5b505afa1580156115bb573d6000803e3d6000fd5b505050506040513d60208110156115d157600080fd5b810190808051906020019092919050505015151415156115f057600080fd5b600760009054906101000a900473ffffffffffffffffffffffffffffffffffffffff1673ffffffffffffffffffffffffffffffffffffffff16630360f1d56040518163ffffffff167c0100000000000000000000000000000000000000000000000000000000028152600401600060405180830381600087803b15801561167657600080fd5b505af115801561168a573d6000803e3d6000fd5b5050505060019050919050565b806000803373ffffffffffffffffffffffffffffffffffffffff1673ffffffffffffffffffffffffffffffffffffffff1681526020019081526020016000206000848152602001908152602001600020819055505050565b6000600560009054906101000a900473ffffffffffffffffffffffffffffffffffffffff1673ffffffffffffffffffffffffffffffffffffffff163373ffffffffffffffffffffffffffffffffffffffff1614151561174d57600080fd5b6000828451602086016000f59050803b151561176857600080fd5b8091505092915050565b828054600181600116156101000203166002900490600052602060002090601f016020900481019282601f106117b357805160ff19168380011785556117e1565b828001600101855582156117e1579182015b828111156117e05782518255916020019190600101906117c5565b5b5090506117ee91906117f2565b5090565b61181491905b808211156118105760008160009055506001016117f8565b5090565b9056fea165627a7a72305820b54b597a659eea4fe0e803bc61e840c5a2ad443959be09890a746d97c5ca11860029",
  "source": "\npragma solidity >0.4.99 <0.6.0;\n//import \"../contracts/Cache.sol\";\nimport \"../contracts/Storage.sol\";\n\ncontract Cache {\n      // function itemOwner() public pure returns (address){}\n      function name() public pure returns (string memory) {}\n      function inChache() public pure returns (bool) {}\n      function coordinates() public pure returns (bytes32) {}\n      function putItemInCache() public;\n      function removeItemFromChache() public;\n      function showItemSpecs() public returns(address, string memory, bool, bytes32);\n      function changeItemOwnership(address) public;\n  }   \n\ncontract GeoCacher is Storage {\n\n  address public owner;\n\n  constructor() public {\n    owner = msg.sender;\n  }\n\n  address[] bag;\n  Cache newItem;\n\n  modifier onlyOwner() {\n\t  require(msg.sender == owner);\n\t\t_;\n\t}\n  \n  function createItem(bytes memory code, uint256 salt) public onlyOwner returns (address){\n    address addr;\n    assembly {\n      addr := create2(0, add(code, 0x20), mload(code), salt)\n      if iszero(extcodesize(addr)) {\n        revert(0, 0)\n      }\n    }\n\n    return addr;\n  }\n\n  function setAllBags(address[] memory newBag) private {\n    bag = newBag;\n  }\n\n  function claimOwnershipOfItem(address  _item) public onlyOwner {\n    bag.push(_item);\n    newItem = Cache(_item);\n    newItem.changeItemOwnership(_item);\n  }\n\n  function listChacherItems() public onlyOwner view returns ( address[] memory ){\n      uint counter = 0;\n      for (uint j = 0; j<bag.length; j++) {\n          counter++;\n      }\n\n      address[] memory b = new address[](counter);\n\n      uint counter2 = 0;\n      for (uint i = 0; i<bag.length; i++) {\n          b[counter2] = bag[i];\n          counter2++;\n      }\n      return b;\n  }\n\n  function showItemInfo(address  _item) public  returns (address, string memory, bool, bytes32){\n    newItem = Cache(_item);\n    newItem.showItemSpecs();\n    \n  }\n\n  function placeItemInCache(address _item) public onlyOwner returns(bool) {\n    newItem = Cache(_item);\n    require(newItem.inChache() == false);\n    newItem.putItemInCache();\n    return true;\n  }\n\n  function eliminateItemFromCache(address _item) public onlyOwner returns (bool) {\n    newItem = Cache(_item);\n    require(newItem.inChache() == true);\n    newItem.removeItemFromChache();\n    return true;\n  }\n\n}",
  "sourcePath": "/home/matt/myproject/geo/contracts/GeoCacher.sol",
  "compiler": {
    "name": "solc",
    "version": "0.5.0+commit.1d4f565a.Emscripten.clang"
  },
  "schemaVersion": "3.0.5",
  "updatedAt": "2019-03-26T16:48:04.903Z",
  "devdoc": {
    "methods": {}
  },
  "userdoc": {
    "methods": {}
  }
}