{
  "contractName": "GeoCacher",
  "abi": [
    {
      "constant": true,
      "inputs": [],
      "name": "_stateStorage",
      "outputs": [
        {
          "name": "",
          "type": "address"
        }
      ],
      "payable": false,
      "stateMutability": "view",
      "type": "function"
    },
    {
      "constant": true,
      "inputs": [],
      "name": "owner",
      "outputs": [
        {
          "name": "",
          "type": "address"
        }
      ],
      "payable": false,
      "stateMutability": "view",
      "type": "function"
    },
    {
      "constant": true,
      "inputs": [],
      "name": "newItem",
      "outputs": [
        {
          "name": "",
          "type": "address"
        }
      ],
      "payable": false,
      "stateMutability": "view",
      "type": "function"
    },
    {
      "inputs": [
        {
          "name": "stateStorage",
          "type": "address"
        }
      ],
      "payable": false,
      "stateMutability": "nonpayable",
      "type": "constructor"
    },
    {
      "constant": false,
      "inputs": [
        {
          "name": "code",
          "type": "bytes"
        },
        {
          "name": "salt",
          "type": "uint256"
        }
      ],
      "name": "createItem",
      "outputs": [
        {
          "name": "",
          "type": "address"
        }
      ],
      "payable": false,
      "stateMutability": "nonpayable",
      "type": "function"
    },
    {
      "constant": false,
      "inputs": [
        {
          "name": "_item",
          "type": "address"
        }
      ],
      "name": "claimOwnershipOfItem",
      "outputs": [],
      "payable": false,
      "stateMutability": "nonpayable",
      "type": "function"
    },
    {
      "constant": false,
      "inputs": [],
      "name": "listChacherItems",
      "outputs": [
        {
          "name": "",
          "type": "address[]"
        }
      ],
      "payable": false,
      "stateMutability": "nonpayable",
      "type": "function"
    },
    {
      "constant": false,
      "inputs": [
        {
          "name": "_item",
          "type": "address"
        }
      ],
      "name": "showItemInfo",
      "outputs": [
        {
          "name": "",
          "type": "address"
        },
        {
          "name": "",
          "type": "string"
        },
        {
          "name": "",
          "type": "bool"
        },
        {
          "name": "",
          "type": "bytes32"
        }
      ],
      "payable": false,
      "stateMutability": "nonpayable",
      "type": "function"
    },
    {
      "constant": false,
      "inputs": [
        {
          "name": "_item",
          "type": "address"
        }
      ],
      "name": "placeItemInCache",
      "outputs": [
        {
          "name": "",
          "type": "bool"
        }
      ],
      "payable": false,
      "stateMutability": "nonpayable",
      "type": "function"
    },
    {
      "constant": false,
      "inputs": [
        {
          "name": "_item",
          "type": "address"
        }
      ],
      "name": "eliminateItemFromCache",
      "outputs": [
        {
          "name": "",
          "type": "bool"
        }
      ],
      "payable": false,
      "stateMutability": "nonpayable",
      "type": "function"
    }
  ],
  "bytecode": "0x608060405234801561001057600080fd5b506040516020806112338339810180604052602081101561003057600080fd5b810190808051906020019092919050505080600260006101000a81548173ffffffffffffffffffffffffffffffffffffffff021916908373ffffffffffffffffffffffffffffffffffffffff160217905550336000806101000a81548173ffffffffffffffffffffffffffffffffffffffff021916908373ffffffffffffffffffffffffffffffffffffffff16021790555050611161806100d26000396000f3fe608060405260043610610099576000357c0100000000000000000000000000000000000000000000000000000000900463ffffffff168063101661c61461009e5780631ff02d85146101075780632299a31f146101735780634007076b146102825780636f6d9240146102d95780638da5cb5b1461032a578063cbb39b7f14610381578063da49295b146103d8578063f918051014610441575b600080fd5b3480156100aa57600080fd5b506100ed600480360360208110156100c157600080fd5b81019080803573ffffffffffffffffffffffffffffffffffffffff169060200190929190505050610553565b604051808215151515815260200191505060405180910390f35b34801561011357600080fd5b5061011c610769565b6040518080602001828103825283818151815260200191508051906020019060200280838360005b8381101561015f578082015181840152602081019050610144565b505050509050019250505060405180910390f35b34801561017f57600080fd5b506101c26004803603602081101561019657600080fd5b81019080803573ffffffffffffffffffffffffffffffffffffffff169060200190929190505050610b5d565b604051808573ffffffffffffffffffffffffffffffffffffffff1673ffffffffffffffffffffffffffffffffffffffff1681526020018060200184151515158152602001838152602001828103825285818151815260200191508051906020019080838360005b83811015610244578082015181840152602081019050610229565b50505050905090810190601f1680156102715780820380516001836020036101000a031916815260200191505b509550505050505060405180910390f35b34801561028e57600080fd5b50610297610ce8565b604051808273ffffffffffffffffffffffffffffffffffffffff1673ffffffffffffffffffffffffffffffffffffffff16815260200191505060405180910390f35b3480156102e557600080fd5b50610328600480360360208110156102fc57600080fd5b81019080803573ffffffffffffffffffffffffffffffffffffffff169060200190929190505050610d0e565b005b34801561033657600080fd5b5061033f610f7f565b604051808273ffffffffffffffffffffffffffffffffffffffff1673ffffffffffffffffffffffffffffffffffffffff16815260200191505060405180910390f35b34801561038d57600080fd5b50610396610fa4565b604051808273ffffffffffffffffffffffffffffffffffffffff1673ffffffffffffffffffffffffffffffffffffffff16815260200191505060405180910390f35b3480156103e457600080fd5b50610427600480360360208110156103fb57600080fd5b81019080803573ffffffffffffffffffffffffffffffffffffffff169060200190929190505050610fca565b604051808215151515815260200191505060405180910390f35b34801561044d57600080fd5b506105116004803603604081101561046457600080fd5b810190808035906020019064010000000081111561048157600080fd5b82018360208201111561049357600080fd5b803590602001918460018302840111640100000000831117156104b557600080fd5b91908080601f016020809104026020016040519081016040528093929190818152602001838380828437600081840152601f19601f8201169050808301925050505050505091929192908035906020019092919050505061110f565b604051808273ffffffffffffffffffffffffffffffffffffffff1673ffffffffffffffffffffffffffffffffffffffff16815260200191505060405180910390f35b60008060009054906101000a900473ffffffffffffffffffffffffffffffffffffffff1673ffffffffffffffffffffffffffffffffffffffff163373ffffffffffffffffffffffffffffffffffffffff161415156105b057600080fd5b81600160006101000a81548173ffffffffffffffffffffffffffffffffffffffff021916908373ffffffffffffffffffffffffffffffffffffffff16021790555060011515600160009054906101000a900473ffffffffffffffffffffffffffffffffffffffff1673ffffffffffffffffffffffffffffffffffffffff16637823f6106040518163ffffffff167c010000000000000000000000000000000000000000000000000000000002815260040160206040518083038186803b15801561067957600080fd5b505afa15801561068d573d6000803e3d6000fd5b505050506040513d60208110156106a357600080fd5b810190808051906020019092919050505015151415156106c257600080fd5b600160009054906101000a900473ffffffffffffffffffffffffffffffffffffffff1673ffffffffffffffffffffffffffffffffffffffff1663d8ff893b6040518163ffffffff167c0100000000000000000000000000000000000000000000000000000000028152600401600060405180830381600087803b15801561074857600080fd5b505af115801561075c573d6000803e3d6000fd5b5050505060019050919050565b60606000809054906101000a900473ffffffffffffffffffffffffffffffffffffffff1673ffffffffffffffffffffffffffffffffffffffff163373ffffffffffffffffffffffffffffffffffffffff161415156107c657600080fd5b600080905060008090505b600260009054906101000a900473ffffffffffffffffffffffffffffffffffffffff1673ffffffffffffffffffffffffffffffffffffffff16635948f7336040518163ffffffff167c010000000000000000000000000000000000000000000000000000000002815260040180807f62616700000000000000000000000000000000000000000000000000000000008152506020019050600060405180830381600087803b15801561088257600080fd5b505af1158015610896573d6000803e3d6000fd5b505050506040513d6000823e3d601f19601f8201168201806040525060208110156108c057600080fd5b8101908080516401000000008111156108d857600080fd5b828101905060208101848111156108ee57600080fd5b815185602082028301116401000000008211171561090b57600080fd5b50509291905050505181101561093057818060010192505080806001019150506107d1565b506060816040519080825280602002602001820160405280156109625781602001602082028038833980820191505090505b509050600080905060008090505b600260009054906101000a900473ffffffffffffffffffffffffffffffffffffffff1673ffffffffffffffffffffffffffffffffffffffff16635948f7336040518163ffffffff167c010000000000000000000000000000000000000000000000000000000002815260040180807f62616700000000000000000000000000000000000000000000000000000000008152506020019050600060405180830381600087803b158015610a2157600080fd5b505af1158015610a35573d6000803e3d6000fd5b505050506040513d6000823e3d601f19601f820116820180604052506020811015610a5f57600080fd5b810190808051640100000000811115610a7757600080fd5b82810190506020810184811115610a8d57600080fd5b8151856020820283011164010000000082111715610aaa57600080fd5b505092919050505051811015610b5357600381815481101515610ac957fe5b9060005260206000200160009054906101000a900473ffffffffffffffffffffffffffffffffffffffff168383815181101515610b0257fe5b9060200190602002019073ffffffffffffffffffffffffffffffffffffffff16908173ffffffffffffffffffffffffffffffffffffffff168152505081806001019250508080600101915050610970565b5081935050505090565b6000606060008084600160006101000a81548173ffffffffffffffffffffffffffffffffffffffff021916908373ffffffffffffffffffffffffffffffffffffffff160217905550600160009054906101000a900473ffffffffffffffffffffffffffffffffffffffff1673ffffffffffffffffffffffffffffffffffffffff1663e8aeea136040518163ffffffff167c0100000000000000000000000000000000000000000000000000000000028152600401600060405180830381600087803b158015610c2b57600080fd5b505af1158015610c3f573d6000803e3d6000fd5b505050506040513d6000823e3d601f19601f820116820180604052506080811015610c6957600080fd5b81019080805190602001909291908051640100000000811115610c8b57600080fd5b82810190506020810184811115610ca157600080fd5b8151856001820283011164010000000082111715610cbe57600080fd5b50509291906020018051906020019092919080519060200190929190505050505050509193509193565b600260009054906101000a900473ffffffffffffffffffffffffffffffffffffffff1681565b6000809054906101000a900473ffffffffffffffffffffffffffffffffffffffff1673ffffffffffffffffffffffffffffffffffffffff163373ffffffffffffffffffffffffffffffffffffffff16141515610d6957600080fd5b600260009054906101000a900473ffffffffffffffffffffffffffffffffffffffff1673ffffffffffffffffffffffffffffffffffffffff166388a0072a826040518263ffffffff167c010000000000000000000000000000000000000000000000000000000002815260040180807f62616700000000000000000000000000000000000000000000000000000000008152506020018273ffffffffffffffffffffffffffffffffffffffff1673ffffffffffffffffffffffffffffffffffffffff168152602001915050600060405180830381600087803b158015610e4e57600080fd5b505af1158015610e62573d6000803e3d6000fd5b5050505080600160006101000a81548173ffffffffffffffffffffffffffffffffffffffff021916908373ffffffffffffffffffffffffffffffffffffffff160217905550600160009054906101000a900473ffffffffffffffffffffffffffffffffffffffff1673ffffffffffffffffffffffffffffffffffffffff166303f4e559826040518263ffffffff167c0100000000000000000000000000000000000000000000000000000000028152600401808273ffffffffffffffffffffffffffffffffffffffff1673ffffffffffffffffffffffffffffffffffffffff168152602001915050600060405180830381600087803b158015610f6457600080fd5b505af1158015610f78573d6000803e3d6000fd5b5050505050565b6000809054906101000a900473ffffffffffffffffffffffffffffffffffffffff1681565b600160009054906101000a900473ffffffffffffffffffffffffffffffffffffffff1681565b60008060009054906101000a900473ffffffffffffffffffffffffffffffffffffffff1673ffffffffffffffffffffffffffffffffffffffff163373ffffffffffffffffffffffffffffffffffffffff1614151561102757600080fd5b81600160006101000a81548173ffffffffffffffffffffffffffffffffffffffff021916908373ffffffffffffffffffffffffffffffffffffffff160217905550600160009054906101000a900473ffffffffffffffffffffffffffffffffffffffff1673ffffffffffffffffffffffffffffffffffffffff16630360f1d56040518163ffffffff167c0100000000000000000000000000000000000000000000000000000000028152600401600060405180830381600087803b1580156110ee57600080fd5b505af1158015611102573d6000803e3d6000fd5b5050505060019050919050565b600080828451602086016000f59050803b151561112b57600080fd5b809150509291505056fea165627a7a72305820e29390e5ed0b7ee02fbe2267f5c4c6c0be62caa6d4256bbe02c8dbd7be9e95190029",
  "source": "pragma solidity >0.4.99 <0.6.0;\n\n//import \"../contracts/SatetStorage.sol\";\n\ninterface StateStorage { \n    // function storeBytes(bytes32 key, bytes calldata value) external;\n    // function getBytes(bytes32 key) external returns(bytes memory);\n\n    function getAddress(bytes32 key) external returns (address);\n    function getAddressArray(bytes32 key) external returns (address[] memory);\n    function getUint(bytes32 key) external returns (uint);\n    function getBool(bytes32 key) external returns (bool);\n    function getBytes32(bytes32 key) external returns (bytes32);\n    function getString(bytes32 key) external returns (string memory);\n    function setAddressArray(bytes32 key, address[] calldata value) external;\n    function updateAddressArray(bytes32 key, address  value) external;\n    function setAddress(bytes32 key, address value) external;\n    function setUint(bytes32 key, uint value) external;\n    function setBool(bytes32 key, bool value) external;\n    function setBytes32(bytes32 key, bytes32 value) external;\n    function setString(bytes32 key, string calldata value) external;\n}\n\ncontract Item {\n      \n      function name() public pure returns (string memory) {}\n      function itemOwner() public pure returns(address){}\n      function inCache() public pure returns (bool) {}\n      function coordinates() public pure returns (bytes32) {}\n      function getinCache() public pure returns (bool){}\n      function putItemInCache() public;\n      function setName() public;\n      function setinCache() public;\n      function setCoordinates() public;\n      function getOwnership() public view returns(address);\n      function getName() public view returns(string memory);\n      function getCoordinates() public view returns(bytes32);\n      function removeItemFromChache() public;\n      function showItemSpecs() public returns(address, string memory, bool, bytes32);\n      function changeItemOwnership(address) public;\n  }   \n\ncontract GeoCacher  {\n\n  address public owner;\n  Item public newItem;\n  StateStorage public _stateStorage;\n  address[] bag;\n\n constructor(StateStorage stateStorage) public {\n        _stateStorage = stateStorage;\n        owner = msg.sender;\n      }\n\n  modifier onlyOwner() {\n\t  require(msg.sender == owner);\n\t\t_;\n\t}\n  \n  function createItem(bytes memory code, uint256 salt) public  returns (address){\n    address addr;\n    assembly {\n      addr := create2(0, add(code, 0x20), mload(code), salt)\n      if iszero(extcodesize(addr)) {\n        revert(0, 0)\n      }\n    }\n\n    return addr;\n  }\n\n  function setTheBag() private {\n    address[] memory someBag;\n    _stateStorage.setAddressArray(\"bag\" , someBag );\n  }\n\n  function claimOwnershipOfItem(address  _item) public onlyOwner {\n    _stateStorage.updateAddressArray(\"bag\" , _item );//???\n    newItem = Item(_item);\n    newItem.changeItemOwnership(_item);\n  }\n\n  function listChacherItems() public  onlyOwner  returns ( address[] memory ){\n      uint counter = 0;\n      for (uint j = 0; j<_stateStorage.getAddressArray(\"bag\").length; j++) {\n          counter++;\n      }\n\n      address[] memory b = new address[](counter);\n\n      uint counter2 = 0;\n      for (uint i = 0; i<_stateStorage.getAddressArray(\"bag\").length; i++) {\n          b[counter2] = bag[i];\n          counter2++;\n      }\n      return b;\n  }\n\n  function showItemInfo(address  _item) public  returns (address, string memory, bool, bytes32){\n    newItem = Item(_item);\n    newItem.showItemSpecs();\n    \n  }\n\n  function placeItemInCache(address _item) public onlyOwner returns(bool) {\n    newItem = Item(_item);\n    //require(newItem.getinCache(\"inCache\") == false);\n    newItem.putItemInCache();\n    return true;\n  }\n\n  function eliminateItemFromCache(address _item) public onlyOwner returns (bool) {\n    newItem = Item(_item);\n    require(newItem.getinCache() == true);\n    newItem.removeItemFromChache();\n    return true;\n  }\n\n}",
  "sourcePath": "/home/matt/myproject/geo/contracts/GeoCacher.sol",
  "compiler": {
    "name": "solc",
    "version": "0.5.0+commit.1d4f565a.Emscripten.clang"
  },
  "schemaVersion": "3.0.5",
  "updatedAt": "2019-03-30T23:23:42.986Z",
  "devdoc": {
    "methods": {}
  },
  "userdoc": {
    "methods": {}
  }
}